:020000040800F2
:10000000E046002089010008E30500086D020008B1
:10001000E1050008C10500089D0700080000000078
:100020000000000000000000000000009B0100082C
:10003000C305000800000000F7010008E5050008FE
:10004000A3010008A3010008A3010008A301000800
:10005000A3010008A3010008A3010008A3010008F0
:10006000A3010008A3010008A3010008A3010008E0
:10007000A3010008A3010008A3010008A3010008D0
:10008000A3010008A3010008A3010008A3010008C0
:10009000A3010008A3010008A3010008A3010008B0
:1000A000A3010008A3010008A3010008A3010008A0
:1000B000A3010008A3010008A3010008A301000890
:1000C000A3010008A3010008A3010008A301000880
:1000D000A3010008BD060008090700085107000831
:1000E000A3010008A3010008A301000800F002F822
:1000F00000F03AF80AA090E8000C82448344AAF188
:100100000107DA4501D100F02FF8AFF2090EBAE885
:100110000F0013F0010F18BFFB1A43F0010318473B
:100120002C3F00004C3F0000103A24BF78C878C133
:10013000FAD8520724BF30C830C144BF04680C60ED
:10014000704700000023002400250026103A28BF35
:1001500078C1FBD8520728BF30C148BF0B60704739
:100160001FB51FBD10B510BD00F0EBF91146FFF72C
:10017000F7FF00F020FA00F009FA03B4FFF7F2FFEE
:1001800003BC00F011FA0000094880470948004705
:10019000FEE7FEE7FEE7FEE7FEE7FEE7FEE7FEE737
:1001A000FEE7FEE704480549054A064B7047000094
:1001B00061060008ED000008E0400020E046002055
:1001C000E0420020E0420020EFF3108072B670475A
:1001D00080F310887047324A1368012B04D04FF027
:1001E000010313602F4A10602F4A11602F484FF00F
:1001F000805101607047EFF3108272B628480168A1
:1002000091B14FF0000101602648016829B1EFF378
:10021000098121E9F00F0068016023490968096834
:10022000B1E8F00F81F3098882F310884EF0040ED4
:1002300070471D4908601B494FF0000008601849CD
:100240004FF0010008601A481A49D0F8002041EA2E
:100250000201016015484FF08051016016480068A6
:10026000006880F3088861B662B670471EF0040F1C
:100270000CBFEFF30880EFF3098020E9F00F40F89E
:1002800004ED1EF0040F0CBF80F3088880F309888A
:1002900000B501F045FE5DF804EB4EF0040E70472A
:1002A0004C000020440000204800002004ED00E045
:1002B00020ED00E00000FFFF08ED00E040EA010350
:1002C000024630B59B0710D14FF0013400E008C260
:1002D00008C91D1B9D4315EAC41FF8D013F0FF0188
:1002E00002F8011B0DD01B0AF8E711F8013B002BA7
:1002F00002F8013B05D011F8013B002B02F8013B4D
:10030000F3D130BD10B5431C02E010F8011B71B1F0
:100310008107FAD14FF0013202C88C1A8C4314EADB
:10032000C211F9D0C01A0A0603D0C01E10BDC01AEF
:1003300010BD0A0401D0801E10BD0902FCD0401E71
:1003400010BD40EA010370B59B072ED14FF0013676
:10035000042A2AD308C810C99D1B9D43121F15EA01
:10036000C61517D0D8B2E1B2401A50EA056110D1D3
:1003700098B2A1B2401A50EA05410AD123F07F4059
:1003800024F07F41401A50EA052102D1180EA0EB5B
:10039000146070BDA342DBD018BA21BA884201D9DB
:1003A000012070BD4FF0FF3070BD0AB9002070BD54
:1003B00010F8013B11F8014B63B1A3420AD1521E60
:1003C00008D010F8013B11F8014B1BB1A34201D139
:1003D000521EEDD1181B70BD421E12F8013F002BBA
:1003E000FBD111F8013B002B02F8013BF9D170471A
:1003F00010B5203AC0F00B80B1E81850203AA0E8C0
:100400001850B1E81850A0E81850BFF4F5AF5FEAF3
:10041000027C24BFB1E81850A0E8185044BF18C9A6
:1004200018C0BDE810405FEA827C24BF51F8043B4D
:1004300040F8043B08BF7047D20728BF31F8023BA1
:1004400048BF11F8012B28BF20F8023B48BF00F835
:10045000012B70474FF000020429C0F0128010F009
:10046000030C00F01B80CCF1040CBCF1020F18BF90
:1004700000F8012BA8BF20F8022BA1EB0C0100F023
:100480000DB85FEAC17C24BF00F8012B00F8012BF6
:1004900048BF00F8012B70474FF0000200B513462B
:1004A00094469646203922BFA0E80C50A0E80C5094
:1004B000B1F12001BFF4F7AF090728BFA0E80C5045
:1004C00048BF0CC05DF804EB890028BF40F8042B3E
:1004D00008BF704748BF20F8022B11F0804F18BFAB
:1004E00000F8012B704710B5044610F0030F08BF49
:1004F00011F0030F40F015804FF0013E121FC0F2C3
:100500000E8051F8043BA3EB0E0C2CEA030C1CEA02
:10051000CE1C08BF40F8043BF0D0A1F1040102F169
:100520000402521E08DB11F8013B002B00F8013BCE
:10053000F7D11146FFF78EFF204610BD7047704778
:100540007047754600F02CF8AE46050069465346E4
:1005500020F00700854618B020B5FFF723FEBDE860
:1005600020404FF000064FF000074FF000084FF01A
:10057000000B21F00701AC46ACE8C009ACE8C009AB
:10058000ACE8C009ACE8C0098D46704710B5044618
:10059000AFF300802046BDE81040FFF7EEBD00003D
:1005A000004870478040002001491820ABBEFEE79C
:1005B00026000200704710B502F08CFE002010BD2E
:1005C000FEE770470EB500200090019002900523D1
:1005D00004224FF4E131012002F0BEFE00200EBDE6
:1005E000FEE7FEE710B501F0B5FD02F027FCBDE81F
:1005F000104001F0BDBD0000144910B54868144A10
:1006000010F00C03134803D0042B01D0082B09D0A1
:1006100002604968104AC1F30311515C0268CA4084
:10062000026010BD4A684B6802F470124FF0020479
:1006300013F4803F04EB924202D04B689B0301D538
:10064000064B00E0024B5A43E2E700000010024074
:1006500000127A0000000020463B000800093D001F
:100660001448016841F48031016001688903FCD5B8
:10067000416841F480614160416841F480314160EA
:10068000416841F4E01141600B490A6842F03202CE
:100690000A60016841F08071016001688901FCD540
:1006A000416841F002014160416801F00F010A29EF
:1006B000FAD17047001002400020024010B501F04E
:1006C00049FD0E48016889060BD50C490C310968B3
:1006D000890606D50A4A01211170016821F020011E
:1006E00001600648001D0068C1B20648006801F0BC
:1006F000E5FEBDE8104001F03BBD000000380140C0
:1007000004000020E000002010B501F023FD0D489A
:100710000168890612D50B490C31096889060DD587
:10072000094A01215170016821F020010160001D7A
:100730000068C1B20548006801F0C0FEBDE8104085
:1007400001F016BD0044004004000020E00000203D
:1007500010B501F0FFFC0E48016889060BD50C4965
:100760000C310968890606D50A4A01219170016891
:1007700021F0200101600648001D0068C1B2064852
:10078000006801F09BFEBDE8104001F0F1BC0000E4
:100790000048004004000020E0000020FEE70000C8
:1007A000002806D00E4910F0FF0F03D0C0B2085C3D
:1007B000401C704710F47F4F04D0C0F30720085C42
:1007C0000930704710F47F0F04D0C0F30740085C75
:1007D0001130704701EB106000781930704700004D
:1007E000563B00082DE9F04F89B092468B460646ED
:1007F000002400E0641C305D202803D0092801D0CB
:100800005C45F7D34FF0FF387CB3194804F1060973
:10081000184F056811E0062217A12868FFF791FD1F
:1008200050B9286822463146801DFFF78AFD18B965
:10083000296811F8090020B10C3538688542EAD3DF
:1008400014E0AC688CB120216846FFF725FE6A46AB
:100850005946304601F0CAF838B16946A047CAF88F
:100860000000002009B0BDE8F08FFFE74046F9E73F
:10087000280000202C0000205F5F636D645F000093
:100880002DE9FC411F460446DDE90831DDE90A6532
:10089000143040600060C4E90827C4E90A310A4600
:1008A000232118461C3401F09FFED4E903014218AD
:1008B000D4E90101104B121F01F030FC44F81A0B6F
:1008C000002004F801690D4A04F8036BE4E802050E
:1008D00044F8105901C404F83C0B01C444F87409ED
:1008E000009023460190194604F1440002F03AFBBF
:1008F0000020BDE8FC8100005D2B00087B2D000876
:1009000010B5029C24F001044472C0E907120021D2
:10091000C0E9093114304060006010BD143001F0AE
:10092000AEBC70B50546FFF74FFC296F044609B110
:10093000284688472046BDE87040FFF749BC0000C4
:1009400010B51BA001F054FC1C4C21781CA001F038
:100950004FFC2078C00702D01FA001F049FC20788E
:10096000800702D51FA001F043FC2078400702D584
:100970001FA001F03DFC2078000702D520A001F067
:1009800037FC2078C00602D520A001F031FC207889
:10099000000607D509480F300168BDE810401DA0CA
:1009A00001F026BCBDE810401EA001F021BC0000F3
:1009B000627573206661756C743A0A0029ED00E077
:1009C0005343425F434653525F424653523A307854
:1009D00025303258200000004942555345525220DC
:1009E0000000000050524543495345525220000038
:1009F000494D505245434953455252200000000092
:100A0000554E53544B4552522000000053544B4511
:100A1000525220005343422D3E424641523A253025
:100A200038580A000A00000010B500F0C1FB002091
:100A300010BD10B500F014FD002010BD104810B519
:100A4000416991F82110890703D40E4900200870EC
:100A500013E0016921B180220A48FFF744FD0CE050
:100A600000F0C2FF08B108A100E009A10548FFF7A6
:100A700025FC09A10348FFF7AFFC024810BD0000A8
:100A800028000020E40000206D73682000000000B2
:100A900066696E73682000003E00000003494969E2
:100AA00011F8212F60F341020A70704728000020DE
:100AB000014AC2E900017047280000207CB51649B0
:100AC0001648FFF7F5FF7821012001F009F9144CD1
:100AD0006061D0B10A211520CDE900014FF4806397
:100AE0000022104910A002F014F8054600231A460F
:100AF0000FA1606901F0A0FE0120FFF7CFFF15B143
:100B0000284602F003F900207CBD0BA001F070FB29
:100B10004FF0FF307CBD00004C400008743F0008DF
:100B200028000020510B0008747368656C6C00008D
:100B300073687278000000006E6F206D656D6F72D3
:100B40007920666F72207368656C6C0A0000000083
:100B5000984D686910F8211F41F001010170FFF7FD
:100B60006DFF01F045FB002601F0B2F90400FBD453
:100B70001B2C07D0686990F82010012907D00229A2
:100B80000ED017E06969012081F82000ECE75B2CAA
:100B900002D080F820600DE0022180F82010E3E709
:100BA00080F82060412CDFD0422CDDD0442C38D09E
:100BB000432C43D0002CD7D0FF2CD5D0092C4ED0BD
:100BC0007F2C75D0082C73D00D2C70D00A2CFCD043
:100BD000B0F87210502901D3A0F87260B0F87430E8
:100BE000B0F872108B427DD2CA1A00F12201233074
:100BF0001944184401F0DEFC6869B0F87410223022
:100C00000C54686990F82110C90706D0B0F8741028
:100C10002230014468A001F0EBFA6869B0F8744032
:100C2000A5E0B0F8740000289ED064A001F0E0FABE
:100C3000686930F8741F491E018095E7B0F8741098
:100C4000B0F8722091428FD22230095C5CA001F092
:100C5000CFFA696931F8740F401C088084E70024DA
:100C600003E056A001F0C4FA641C6869B0F874008F
:100C7000A042F6DC6C6953A0223401F0B9FA00F00E
:100C8000B3FE012802D1204600F0EAFDFFF7D6FEB0
:100C9000014622464CA001F0ABFA68692230FFF70A
:100CA00031FB696921F8720F48805DE700E03DE0A3
:100CB000B0F87420002AC0D0B0F87210521E491E3D
:100CC00089B293B2A0F87210A0F87430994224D976
:100CD000CA1A00F1230122301944184401F06AFCB9
:100CE000686900E049E0B0F8721022300E5468697B
:100CF000B0F874102230014435A001F079FA686927
:100D0000B0F8744003E02DA001F072FA641C686929
:100D1000B0F87200A04290DBF5E72FA001F068FA6E
:100D20006869B0F8721022300E541DE700F05CFEC6
:100D300001280DD1686990F82100C00702D021A0D8
:100D400001F056FA6869B0F87210223000F0DEFD4A
:100D5000FFF774FE01F04CFA686950212230FFF76A
:100D600079FB686922E015A001F042FA641C686909
:100D7000B0F87200A042F6DC0AE022300C54686938
:100D800090F82100C00703D021460DA001F030FAF1
:100D90006869B0F87210491C89B2A0F87210B0F8F6
:100DA0007420521CA0F874205029BED320F8726F12
:100DB0004680D9E6280000202573000008000000C6
:100DC000256300000A000000257325730000000061
:100DD0000825732020080000082008002DE9F04FA6
:100DE0009646374ADDF824B00509966900F00F0AE7
:100DF000AF1C0124BC40264396610207960E4FF0BB
:100E00000F0C0CFA06F8A6F1200703FA06F90CFA03
:100E100007FCBB402B4A040952F8244011B10129B8
:100E200018D03CE0BAF1080F0AD2216821EA080183
:100E3000216052F825100B6843EA09030B602EE08D
:100E4000616821EA0C01616052F825104C68234367
:100E50004B6024E0BAF1080F11D2216821EA0801A1
:100E6000216052F825100B6843EA09030B6052F821
:100E700025100C680BFA06F31C430C600FE0616848
:100E800021EA0C01616052F825104C6823434B6045
:100E900052F825300BFA07F15C682143596052F88B
:100EA000251000F00F0301209840CA68BEF1000F22
:100EB00001D0024300E08243CA60BDE8F08F000029
:100EC00000100240080000200549020951F82210D4
:100ED000CA6800F00F03012098404240CA60704782
:100EE0000800002010B5124C2068800702D511A020
:100EF00001F07EF92068400011D50D48C01E007831
:100F000008B1FFF71DFD0A48001F007808B100F086
:100F10003BFC0748801E008808B102F00FFB2068E8
:100F2000002804DABDE8104008A001F061B910BD46
:100F30002CED00E06661696C656420766563746F12
:100F4000722066657463680A00000000646562755B
:100F500067206576656E740A0000000010B502A077
:100F600001F046F9002010BD48656C6C6F205254AA
:100F70002D546872656164210A00000070B50CA0F0
:100F800001F036F90F48104D04680BE002220FA162
:100F90002068FFF7D6F920B1D4E900120CA001F0C7
:100FA00027F90C3428688442F0D3002070BD00007B
:100FB0002D2D46756E6374696F6E204C6973743A9B
:100FC0000A000000280000202C0000205F5F0000C5
:100FD000252D313673202D2D2025730A00000000A9
:100FE0002DE9F04104461E4617460D46084601F01D
:100FF00069FB001D2060257200206760C4E9036062
:10100000BDE8F0812DE9F0410D4600212961E96834
:1010100091B1297A81B12E6888B10446FFF7D4F8DE
:101020000146A4F10C002A7A007A20F08000904258
:1010300009D00846FFF7CCF80020BDE8F08134461F
:10104000FFF7C2F80146686800272468B44201D15E
:10105000002404E010C0EA687F1CBA42F5D10846BB
:10106000FFF7B6F820462F61E7E700002DE9F041D1
:1010700096B000262FA408230CAA052106A8FFF786
:10108000AFFF08208046014622462CA001F0B0F8B0
:10109000404600F041FD32A001F0AAF806A9304612
:1010A000FFF7B0FF064600253BE00CA850F82540AE
:1010B0000C3CFFF789F80146207A9DF8202020F0AB
:1010C00080009042084602D0FFF782F828E0FFF740
:1010D0007FF8606904F11407B842384613D001F074
:1010E000B3F8228C618C0091CDE9012023460822BF
:1010F000414622A001F07CF8384602F001F925A013
:1011000001F076F80CE001F09FF8218C628CCDE9BB
:10111000002102902346082241461FA001F068F8F2
:101120006D1C0A98A842C0DC002EB7D116B0002072
:10113000BDE8F0816D61696C626F7800252D2A2E03
:101140007320656E7472792073697A652073757384
:1011500070656E64207468726561640A0000000046
:10116000202D2D2D2D20202D2D2D2D202D2D2D2DE3
:101170002D2D2D2D2D2D2D2D2D2D0A00252D2A2EF9
:101180002A732025303464202025303464202564DF
:101190003A0000000A000000252D2A2E2A7320257F
:1011A0003034642020253034642025640A00000097
:1011B00010B5074C07A0E16801F01AF80AA02169F0
:1011C00001F016F86169BDE810400CA001F010B8FC
:1011D00058000020746F74616C206D656D6F7279BA
:1011E0003A2025640A00000075736564206D656D02
:1011F0006F7279203A2025640A0000006D617869D9
:101200006D756D20616C6C6F6361746564206D65D4
:101210006D6F72793A2025640A0000002DE9F041D3
:1012200094B000262CA408230BAA062105A8FFF7DA
:10123000D7FE08208046014622462AA000F0D8FFAB
:10124000404600F069FC2EA000F0D2FF05A9304610
:10125000FFF7D8FE0646002535E00BA850F82540DC
:101260000C3CFEF7B1FF217A9DF81C2021F0800193
:10127000914202D0FEF7ACFF24E0FEF7A9FF6069BF
:1012800004F11407B842384611D000F0DDFFA18CFC
:10129000CDE900102346082241461FA000F0A8FF18
:1012A000384602F02DF821A000F0A2FF0AE000F07D
:1012B000CBFFA18CCDE900102346082241461CA09B
:1012C00000F096FF6D1C0998A842C6DC002EBDD127
:1012D00014B00020BDE8F0816D73677175657565A8
:1012E00000000000252D2A2E7320656E747279206F
:1012F00073757370656E64207468726561640A004A
:10130000202D2D2D2D20202D2D2D2D2D2D2D2D2D34
:101310002D2D2D2D2D0A0000252D2A2E2A73202556
:10132000303464202025643A000000000A000000E8
:10133000252D2A2E2A732025303464202025640A86
:10134000000000002DE9F04194B000262CA40823F1
:101350000BAA022105A8FFF743FE0820804601469C
:1013600022462AA000F044FF404600F0D5FB2EA004
:1013700000F03EFF05A93046FFF744FE0646002573
:1013800035E00BA850F825400C3CFEF71DFF217AF4
:101390009DF81C2021F08001914202D0FEF718FF39
:1013A00024E0FEF715FF606904F11407B8423846DF
:1013B00011D000F049FFA18BCDE90010234608228F
:1013C00041461FA000F014FF384601F099FF15A018
:1013D00000F00EFF0AE000F037FFA18BCDE900100E
:1013E0002346082241461AA000F002FF6D1C09980E
:1013F000A842C6DC002EBDD114B00020BDE8F081AB
:1014000073656D6170686F7265000000252D2A2E6E
:1014100073207620202073757370656E6420746865
:10142000726561640A000000202D2D2D202D2D2DC8
:101430002D2D2D2D2D2D2D2D2D2D2D0A00000000B3
:10144000252D2A2E2A7320253033642025643A0066
:10145000252D2A2E2A7320253033642025640A0086
:101460002DE9F041B4B000263CA408232CAA0121A8
:1014700026A8FFF7B5FD08208046014622463948D8
:1014800000F0B6FE404600F047FB37A000F0B0FE8B
:1014900026A93046FFF7B6FD0646002554E02CA8E5
:1014A00050F825400C3CFEF78FFE0746207A9DF849
:1014B000A01020F08000884203D03846FEF788FE56
:1014C00041E07822214607A8FEF792FF3846FEF752
:1014D0007FFE94F83500009023460822414632A052
:1014E00000F086FE94F8340000F00F00012807D0C9
:1014F000022807D040B1042808D0032808D00AE009
:101500002CA006E02EA004E030A002E032A000E013
:1015100034A000F06DFEA06A014600E0401C027895
:10152000232AFBD0E26A401A101A64235843B0FB06
:10153000F2F3276B206CCDE90007E069081A8118E7
:101540002BA000F055FE6D1C2A98A842A7DC002EA7
:101550009ED134B00020BDE8F0810000746872654F
:1015600061640000783C0008202D2D2D20202D2DB9
:101570002D2D2D2D2D202D2D2D2D2D2D2D2D2D2DA8
:10158000202D2D2D2D2D2D2D2D2D2D20202D2D2DB2
:101590002D2D2D20202D2D2D2D2D2D2D2D2D2D20A2
:1015A0002D2D2D0A00000000252D2A2E2A7320251E
:1015B00033642000207265616479202000000000FF
:1015C0002073757370656E640000000020696E6999
:1015D000742020200000000020636C6F73652020C1
:1015E000000000002072756E6E696E6700000000DA
:1015F0002030782530387820307825303878202011
:1016000020202530326425252020203078253038D0
:101610007820253033640A00F0B593B0002626A464
:1016200008230BAA0A2104A8FFF7DAFC08272246A0
:10163000394623A000F0DCFD384600F06DFA2AA000
:1016400000F0D6FD04A93046FFF7DCFC0646002575
:1016500024E00BA850F825400C3CFEF7B5FD217A9C
:101660009DF8182021F08001914202D0FEF7B0FDD4
:1016700013E0FEF7ADFDD4E90901CDE900012346F1
:101680000822394621A000F0B3FD607AC00701D0DE
:1016900024A000E026A000F0ABFD6D1C0898A84235
:1016A000D7DC002ECED101F0C3FB014624A000F010
:1016B0009FFD13B00020F0BD74696D6572000000DD
:1016C000252D2A2E732020706572696F646963204E
:1016D000202074696D656F757420202020202020E3
:1016E000666C61670A000000202D2D2D2D2D2D2DFB
:1016F0002D2D2D202D2D2D2D2D2D2D2D2D2D202D34
:101700002D2D2D2D2D2D2D2D2D2D0A00252D2A2E63
:101710002A73203078253038782030782530387892
:10172000200000006163746976617465640A0000DA
:1017300064656163746976617465640A0000000021
:1017400063757272656E74207469636B3A307825C4
:101750003038780A0000000008B50320002300900C
:101760001A4601212D20FFF739FB2D20FFF7ACFB96
:10177000642001F07FFAF8E710B500F0CDFABDE87B
:101780001040FFF7E9BF000010B518A000F030FDD1
:101790001B4C21781BA000F02BFD2078C00702D045
:1017A0001EA000F025FD2078800702D51EA000F0C5
:1017B0001FFD2078000702D51EA000F019FD20783B
:1017C000C00602D51EA000F013FD2078000607D544
:1017D0000B480C300168BDE810401CA000F008BDAB
:1017E000BDE810401D4800F003BD00006D656D2090
:1017F0006D616E616765206661756C743A0A000000
:1018000028ED00E05343425F434653525F4D465339
:10181000523A307825303258200000004941434385
:1018200056494F4C200000004441434356494F4C19
:10183000200000004D554E53544B4552522000009D
:101840004D53544B45525220000000005343422D4B
:101850003E4D4D41523A253038580A00AC3500080B
:101860002DE9F0478046002500782C4618B1224823
:10187000224F066831E0BDE8F0470021084600F03D
:1018800077B806221EA13068FEF75BFD20BB3068EA
:1018900000F106094046FEF735FD0246494640463E
:1018A000FEF74FFDC0B925B94C464846FEF72AFD64
:1018B00005464946204601E0401C491C02781AB101
:1018C0000B780BB19A42F7D0001BA84200DA05460C
:1018D00049460DA000F08CFC0C3638688642D0D307
:1018E000002C06D02A4621464046BDE8F04701F0CC
:1018F00071B8BDE8F0870000280000202C0000200F
:101900005F5F636D645F000025730A0038B50446AD
:1019100001E0491E641C59B120782028F9D009281B
:10192000F7D06A462046FEF75DFF18B1204604E076
:10193000002038BD009838BD401C0178202901D016
:101940000029F9D100210170214603A000F050FCCC
:101950004FF0FF3038BD000025733A20636F6D6D86
:10196000616E64206E6F7420666F756E642E0A005F
:1019700070B50EA000F03CFC1348144D04680CE058
:10198000062213A12068FEF7DCFC28B9D4E9001276
:1019900011A0891D00F02CFC0C3428688442EFD380
:1019A00010A000F025FC002070BD000052542D5402
:1019B0006872656164207368656C6C20636F6D6D1F
:1019C000616E64733A0A0000280000202C00002099
:1019D0005F5F636D645F0000252D313673202D201D
:1019E00025730A000A0000000120704770B500232B
:1019F00015461C461A464BE000F8012B5B1C067886
:101A0000202E01D0092E01D18B42F5D3082C11D301
:101A100021A000F0EDFB002606E000BF55F82610DF
:101A200025A000F0E5FB761CA642F7D321A000F02C
:101A3000DFFB2FE08B422DD2F6B2222E03D045F8E9
:101A40002400641C1BE0401C45F824005B1C641C43
:101A500008E05C2E04D14678222E01D1401C5B1C8C
:101A6000401C5B1C0678222E01D08B42F1D38B42A6
:101A700010D200F8012B5B1C0AE0401C5B1C0678AE
:101A8000202E03D0092E01D08B42F6D38B4201D2F7
:101A90008B42B4D3204670BD546F6F206D616E7958
:101AA00020617267732021205765206F6E6C79204A
:101AB0005573653A0A000000257320000721814311
:101AC0000A02054908684FF6FF031840034B184304
:101AD00010430860704700000CED00E00000FA05BC
:101AE000830001F003001843510930B5890001F16A
:101AF000E021D1F8003102F01F050124AC4023435E
:101B0000C1F8003102F1E02292F8001441EA00101D
:101B100082F8000430BD000010B5044602E003A0C6
:101B200000F066FB641EFAD210BD00002D0000001C
:101B300030B5134943680A68134402F10804984217
:101B40000DD05D885DB94D68AB4208D08D689D426F
:101B500000D188605D6845605B68851A1D518368A7
:101B6000134483420BD05D88002D08D18D688542D7
:101B700000D18B60416859604068991A015130BDAD
:101B8000580000202DE9F04F85B09946DDE90EA5FB
:101B9000109CAB46630602D5DFF814C103E0DFF802
:101BA00010C1ACF1110CE30601D524F00104E307E8
:101BB00001D0302300E0202300260493A3070BD597
:101BC000002A02DA2D26524206E0630701D52B26B1
:101BD00002E0230700D520260023EE4622B930225A
:101BE0008DF8002001230CE0B9F10A0F14D002F0A7
:101BF0000F0812091CF808800EF803805B1C002AED
:101C0000F2D1AB4200DD1D46AAEB050214F0110F24
:101C10004FF0200708D015E00A27B2FBF7F807FBC2
:101C20001828B2FBF7F2E5E73EB1002A05DD521EA7
:101C300003E0884200D20770401CB2F1000CA2F110
:101C40000102F6DC26B1884200D20670401C521E0A
:101C5000E40605D508E0884201D2049C0470401CCB
:101C6000141EA2F10102F6DC30242E466D1E9E42A7
:101C70000ADD884200D20470401CF6E7884201D297
:101C8000E55C0570401C00E074461D1EA3F10103D5
:101C900007DDBBF1000FF1D103E0884200D20770ED
:101CA000401C131EA2F10102F7DC05B0BDE8F08F65
:101CB000673C00081CB514210A20CDE900014FF44F
:101CC00000730022034904A000F023FFBDE81C407C
:101CD00001F01CB8791700086D61696E0000000002
:101CE00070B54843044600F0D3FA050003D02246FD
:101CF000002100F079FC284670BD000070B5044C4E
:101D0000044D02E020688047241DAC42FAD370BD28
:101D1000603F0008683F000870B5044C044D02E0C5
:101D200020688047241DAC42FAD370BD683F00088C
:101D3000703F000810B5FEF747FA044A5188491C65
:101D40005180BDE81040FEF743BA0000C0000020FB
:101D500010B5FEF739FA0B4C6188491E09B2618053
:101D600000290ADC00216180FEF732FA6068002851
:101D700007D0BDE8104000F0E7BCBDE81040FEF71A
:101D800027BA10BDC000002070B5002833D01A4D0E
:101D9000296888422FD3696888422CD2A0F10C04AC
:101DA0004FF0FF31154800F07DFD60884FF4F55687
:101DB00010B12088B04208D011A000F019FA238891
:101DC0006288214615A000F013FA0020608026806A
:101DD000A868844200D2AC6029686068611A401A21
:101DE0002969081A28612046FFF7A2FEBDE8704065
:101DF000024800F033BD70BD580000206003002091
:101E0000746F206672656520612062616420646180
:101E1000746120626C6F636B3A0A00006D656D3A05
:101E2000203078253038782C207573656420666CF6
:101E300061673A2025642C206D6167696320636FB8
:101E400064653A203078253034780A0000487047BD
:101E500080040020004870478040002010B5FEF745
:101E6000CBFB15484FF47A710068B0FBF1F0401ECF
:101E7000B0F1807F0AD24FF0E02148610F4AF02094
:101E800082F8140D00208861072008610220FFF706
:101E900015FEFFF733FFFFF7DDFF0446FFF7D6FF20
:101EA000214600F0ABFD00220A2105A000F068FAEF
:101EB0000649086010BD0000000000200FE000E0AF
:101EC0005368656C6C5F525800000000E000002011
:101ED00008B505484FF0FF326946006800F074FA13
:101EE0000098C0B208BD0000E00000202DE9F041DC
:101EF000064600240D2700F065FD05460BE0305D29
:101F00000A2803D13946012001F00CFB315D012084
:101F100001F008FB641CAC42F1D3BDE8F081000085
:101F200070B50546041D2D48016819B1284688473B
:101F3000002851D02AA0E16B00F05AF92CA0216AA8
:101F400000F056F92EA0616A00F052F930A0A16AA3
:101F500000F04EF932A0E16A00F04AF934A021689D
:101F600000F046F936A0616800F042F938A0A16897
:101F700000F03EF93AA0E16800F03AF93CA021698E
:101F800000F036F93EA0616900F032F940A0A16985
:101F900000F02EF942A0E16900F02AF944A0216B7B
:101FA00000F026F946A0616B00F022F948A0A16B71
:101FB00000F01EF92878400708D500F081FE0146A0
:101FC00047A000F015F9FFF74BFA02E04CA000F033
:101FD0000FF9FEF787FFFEE770BD0000400000200C
:101FE0007073723A203078253038780A000000008B
:101FF0007230303A203078253038780A00000000FE
:102000007230313A203078253038780A00000000EC
:102010007230323A203078253038780A00000000DB
:102020007230333A203078253038780A00000000CA
:102030007230343A203078253038780A00000000B9
:102040007230353A203078253038780A00000000A8
:102050007230363A203078253038780A0000000097
:102060007230373A203078253038780A0000000086
:102070007230383A203078253038780A0000000075
:102080007230393A203078253038780A0000000064
:102090007231303A203078253038780A000000005C
:1020A0007231313A203078253038780A000000004B
:1020B0007231323A203078253038780A000000003A
:1020C000206C723A203078253038780A0000000001
:1020D0002070633A203078253038780A00000000FC
:1020E00068617264206661756C74206F6E2074681C
:1020F000726561643A2025730D0A0D0A0000000024
:1021000068617264206661756C74206F6E2068610E
:102110006E646C65720D0A0D0A00000070B504460D
:10212000121D22F007000022094D403840F82250CD
:10213000521C102AFAD301620021416281624FF0E1
:10214000807200F13005C263C16285E81A0070BD7B
:10215000EFBEADDE10B5FEF737F8044A1178491C22
:102160001170BDE81040FEF733B8000054000020A5
:1021700010B5FEF729F8044A1178491E1170BDE820
:102180001040FEF725B800005400002010B500688C
:10219000143800F076FD002010BD00002DE9F0415C
:1021A000064614460D46084600F0C6FD05F1140724
:1021B000B4B1012C18D134680EE000BF95F8351089
:1021C00094F82120A4F11400914204D2394614302D
:1021D00000F033F802E02468B442EFD1B44203D1F6
:1021E0003946304600F029F80020BDE8F0810000B3
:1021F0000FB47F2110B503AB0448029A00F020FF12
:102200000248FFF773FE10BC5DF814FBE0020020EB
:102210000268516002680A600160486070470268A5
:10222000516002680A60016048607047026851604E
:1022300002680A6001604860704742681160426845
:102240004A604160086070470246002100E0491C76
:1022500000689042FBD108467047D0E900124A60FE
:10226000D0E900121160406000607047D0E90012B0
:102270004A60D0E900121160406000607047D0E908
:1022800000124A60D0E9001211604060006070479F
:102290002DE9F047002807D0374CC01C20F003067A
:1022A000E068864202D90020BDE8F0870C2E00D2FB
:1022B0000C264FF0FF31314800F0F4FAD4F808C092
:1022C0002168E768ACEB0100BA1B4FE00D186B8882
:1022D000E3BB6B681B1A0C3BB34246D36A6806F13A
:1022E0001803121A0C3A4FF001094FF4F55A9A42AA
:1022F0002DD383190C33CA184FF00008A2F800A0A0
:10230000A2F80280D5F80480C2E901806B60A5F8CC
:10231000029050680C37B84202D001F10802835095
:10232000206930440C3020616269824200D26061D1
:10233000A5F800A0654512D1A06842887AB162680C
:1023400090420CD040680844A060F6E70DE0A5F884
:10235000029068686A1A801A22691044E3E7074805
:1023600000F07CFA05F10C009EE768688242ADD867
:10237000024800F073FA96E758000020600300203E
:1023800070B50D4601461646052000F050F90400D0
:1023900014D0667204F11400A0616061A8B22084B8
:1023A0008000FFF775FFE06148B100206084A084E1
:1023B000E08404F12800E062A062204670BD20465F
:1023C00000F05DF9002070BD2DE9F74F8A46044604
:1023D0004FF0000900F074FC0546FDF7F5FE0746D6
:1023E000608C02996FF0010808434FF0000637D166
:1023F0003846FDF7EDFE4046BDE8FE8F2E6302989D
:1024000000284FD0627A294604F11400FFF7C6FE77
:10241000029800280CDD00F00BFD814605F1440018
:1024200002AA0021834600F065FD584600F0AEFD8B
:102430003846FDF7CDFE00F087F9286B0028DBD188
:10244000FDF7C2FE07460298002809DD00F0F0FC07
:102450000299A0EB0909B1EB0900029000D50296A0
:10246000608C0028CAD0E18CE06950F82100CAF8DD
:102470000000E08C401C80B2E084218C884200D3B4
:10248000E684608C08B1401E6084A16A04F12800D3
:1024900081420ED0FFF77AFE3846FDF799FE00F034
:1024A00053F909E03846FDF793FE4046C5F8308001
:1024B000A2E73846FDF78CFE00209DE70022AFF32F
:1024C00000802DE9F74F8A4604464FF0000800F0DF
:1024D000F7FB0546FDF778FE0746608C218C002649
:1024E0006FF00209884234D10298002857D030E0BA
:1024F0002E630298E8B3627A294604F12800FFF7B8
:102500004DFE029800280CDD00F092FC804605F19B
:10251000440002AA0021834600F0ECFC584600F07B
:1025200035FD3846FDF754FE00F00EF9286B002803
:1025300039D1FDF749FE07460298002809DD00F071
:1025400077FC0299A0EB0808B1EB0800029000D5D7
:102550000296608C218C8842CAD0A28CE16941F835
:1025600022A0A08C401C80B2A084218C884202D37F
:1025700000E014E0A684608C4FF6FF7188420ED212
:10258000401C6084616904F1140081420DD0FFF7A2
:10259000FDFD3846FDF71CFE00F0D6F808E0384691
:1025A000FDF716FE4846BDE8FE8F3846FDF710FEE3
:1025B0000020F8E710B50346994211D28C189C42CE
:1025C0000ED9811804E000BF14F8013D01F8013D67
:1025D000521EF9D210BD00BF11F8014B03F8014B98
:1025E000521EF9D210BD000010B50346CCB2042A29
:1025F0001AD3810718D1194644EA042343EA034356
:1026000006E008C1103A08C141F8083B41F8043C13
:10261000102AF6D201E008C1121F042AFBD20B4691
:1026200002E000BF03F8014B521EFBD210BD2DE9A2
:10263000F0410F46064600F045F80546C068FFF732
:1026400027FE040019D00021EA68FFF7CDFF2672AB
:102650000020607208223946204600F0BBF9FDF7E1
:10266000B3FD064604F10C01281DFFF7D1FD3046ED
:10267000FDF7AEFD2046BDE8F0810020FBE770B518
:10268000044600202072FDF79FFD054604F10C0072
:10269000FFF7E3FD2846FDF79BFD2046BDE87040AF
:1026A000FFF772BB70B5044600202072FDF78CFD69
:1026B000054604F10C00FFF7D0FD2846BDE8704048
:1026C000FDF786BD074A002102EB01131B78834208
:1026D00002D102EB01107047491C0529F4DB0020F0
:1026E00070470000700000202DE9F04104461646B6
:1026F0000D460846FFF7E6FF0746FFF71BFB381DB0
:10270000796800E009688142FCD1FFF721FB45F0C0
:102710008000207208223146204600F05BF9FDF768
:1027200053FD054604F10C01381DFFF771FD2846E5
:10273000BDE8F041FDF74CBD007A000601D501204F
:10274000704700207047000070B5FDF73DFD114C4B
:1027500005466088B0B9A068FEF722F80E49401E11
:10276000626851F83010143991420BD020700B4838
:102770006160007801F11C01002802F11C0006D004
:10278000FDF729FD2846BDE87040FDF721BDFDF7A6
:1027900022FDF7E7C0000020800300205400002045
:1027A00010B50446FDF710FD024694F834000E49BA
:1027B00020F00F00401C84F8340094F8350001EB41
:1027C000C00104F114004B6818604B68A3614860B5
:1027D00006486161A16B836819438160BDE81040C0
:1027E0001046FDF7F5BC000080030020C00000206B
:1027F00010B50446FDF7E8FC04F11401D1E900230B
:102800005360D1E900231A60A161616194F8352019
:10281000074951F8323001EBC2018B4204D105491E
:10282000A36B8A689A438A60BDE81040FDF7D0BC6C
:1028300080030020C00000202DE9F04116460A4622
:102840001F4605460221FFF74FFF05F11404AC6156
:102850006C61AE836F720020BDE8F08170B50446F4
:10286000FDF7B2FC0546616904F11400814207D00E
:10287000FFF78CFC2846FDF7ABFCFFF765FF09E08E
:10288000A08B4FF6FF71884206D2401CA0832846D9
:10289000FDF79EFC002070BD2846FDF799FC6FF007
:1028A000020070BD73B50546FDF78EFC0646A88B89
:1028B00028B1401EA8833046FDF78AFC21E001982C
:1028C00008B300F0FDF90446002020636A7A21462F
:1028D00005F11400FFF762FC0198002809DD04F1FE
:1028E000440001AA0021054600F004FB284600F040
:1028F0004DFB3046FDF76CFCFFF726FF206B0028F0
:1029000000D100207CBD3046FDF762FC6FF0010075
:102910007CBD000008B509A0FFF76AFC0AA0FFF71C
:1029200067FC12A0009005230122032112A0FFF7EB
:102930005FFCBDE8084018A0FFF75ABC0A205C20E5
:102940007C202F0A000000002D205254202D202032
:10295000202020546872656164204F706572617434
:10296000696E672053797374656D0A004A616E2041
:102970002031203230323200202F207C205C202079
:1029800020202025642E25642E2564206275696C24
:10299000642025730A0000002032303036202D20BC
:1029A0003230323020436F70797269676874206208
:1029B000792072742D746872656164207465616D2C
:1029C0000A000000014600E0491C0A78002AFBD1F9
:1029D000081A704710B5002A07D0034611F8014BBA
:1029E00003F8014B2CB1521EF8D110BD03F8011BA6
:1029F00000E00021521EF9D110BD00000A46C11CA2
:102A000010B522F0030321F00301182B20D9A3F104
:102A100018048C421CD3114C581A18382160E060FD
:102A20004FF4F5520A8000230C30C1E901034B80BA
:102A30004B68194461600A8001224A8048608860BE
:102A4000002307A10848FFF7F7FE2068A06010BD2B
:102A50000146BDE8104005A0FFF7CABB58000020A2
:102A60006865617000000000600300206D656D20E6
:102A7000696E69742C206572726F72206265676975
:102A80006E206164647265737320307825782C2021
:102A9000616E6420656E6420616464726573732086
:102AA000307825780A00000010B50A4900230A4C46
:102AB0004B80184604EBC002401C52601260202874
:102AC000F8DB1F20087003484B600C308B604060BF
:102AD000006010BDC00000208003002010B5074C2E
:102AE000A068FDF75DFE0649401E51F8300014381D
:102AF0006060BDE810401C30FDF79BBBC0000020AB
:102B0000800300200148406000607047D80000202A
:102B100070472DE9FF478946DDE90C76824601467C
:102B20001D4690460120FFF782FD041E0DD0284669
:102B3000FFF7AEFB60B103968DE8A10043464A461D
:102B400051462046FDF79CFE204604B0BDE8F087C4
:102B50002046FFF794FD0020F7E7000070B5144809
:102B60000468FDF731FB05462046FDF7DAFE2046F6
:102B7000FFF73EFE042084F8340004F1440000F026
:102B8000DDF92046FFF7D8FD01280CD004F114012F
:102B90000848FFF744FB00BFFFF7D6FD2846BDE815
:102BA0007040FDF715BB2046FFF77CFDF4E7000001
:102BB000C4000020CC00002000F002F8FCE7000078
:102BC0002DE97040FDF700FB05460F480168814282
:102BD00014D00168A1F11404D1E900024260D1E9E6
:102BE00000021060496009604869FFF7CDF820468F
:102BF000FFF745FD2846FDF7EBFAE3E72846BDE879
:102C00007040FDF7E5BA0000CC0000201FB520237E
:102C100008481F22D9008DE80F000023064A07A1AB
:102C2000783800F00FF804B00248BDE8104078385A
:102C300000F06CB8E0010020B92B00087469646CE6
:102C4000650000002DE9FF5F92460EAA0C4692E84F
:102C5000E0010A46994683460121FFF745FD8DE8CC
:102C6000E0014B46524621465846FDF709FE04B0A6
:102C7000BDE8F09F10B500F0C1F8BDE8104000F0CD
:102C800025B870B5044690F8340000F00F00022813
:102C900002D04FF0FF3070BDFDF796FA054604F103
:102CA0001400FFF7E3FA04F1440000F0B1F92846FC
:102CB000FDF78EFA2046FFF773FD002070BD00007F
:102CC0000148006870470000C4000020F1B5FDF71E
:102CD0007BFA05460C480468204600F02DF804F104
:102CE00044006A460021064600F004F9304600F030
:102CF0004DF92846FDF76CFAFFF726FD206B801C86
:102D000000D120630020F8BDC400002010B590F869
:102D10003610012280F835108A400221826380F843
:102D20003410FFF7AEFF0348006808B1FFF70CFD51
:102D3000002010BDC400002070B5044690F8340097
:102D400000F00F00012802D04FF0FF3070BDFDF7FA
:102D50003BFA05462046FFF74BFD94F8340020F07F
:102D60000F00801C84F8340004F1440000F050F996
:102D70002846FDF72DFA002070BD10B504466FF00F
:102D80000100206304F11400FFF770FA2046FFF7FA
:102D900007FDBDE81040FFF7D7BC000070B5FDF798
:102DA00013FA06461348046894F8340000F00F0044
:102DB000012819D1D4E90501884215D004F1140085
:102DC0000546FFF753FA94F835000B4901EBC000B4
:102DD00041680D6041686960456028603046FDF7D4
:102DE000F7F9FFF7B1FC02E03046FDF7F1F90020FA
:102DF00070BD0000C400002080030020002802DA1B
:102E00004FF0FF3070474FF47A7190FBF1F290FB76
:102E1000F1F301FB130000EB40034A43C3EBC01086
:102E20004B1E03EBC00090FBF1F010447047000014
:102E3000014800687047000050000020094810B5A4
:102E40000168491C0160FFF73BFF016C491E0164EA
:102E500003D1C16B0164FFF7A1FFBDE8104000F092
:102E600003B80000500000202DE9FC41CDF804D04B
:102E7000CDF800D0FFF7DCFF0646FDF7A5F90746C1
:102E80001B4D2DE060696FF00041301A143C884200
:102E900029D22046FDF742FD607A810702D420F056
:102EA0000100607204F1140188466846FFF7BEF91C
:102EB000D4E907108847FFF7BBFF0646009869462C
:102EC00088420DD04046FFF7DAF9607A810707D5CE
:102ED000C10705D020F001006072204600F056F8CE
:102EE0002C68AC42CED13846FDF772F9BDE8FC81C2
:102EF000D800002070B515460E460446FDF764F96B
:102F0000052E17D2DFE806F00503080C1100616AF0
:102F10000FE0296861620DE0617A21F0020102E0B0
:102F2000617A41F00201617204E0617AC90700D060
:102F300001212960FDF74CF9002070BD70B50446F1
:102F4000FDF742F905462046FDF7E8FC607A20F0DF
:102F5000010060722846FDF73BF92046FFF7A2FB0F
:102F6000002070BD2DE9F8439046DDE908450A468A
:102F70001F4606460A21FFF7B7FB23463A4641465D
:102F800030460095FDF7BCFCBDE8F8832DE9F84319
:102F90000446FDF719F980462046FDF7BFFC607A2C
:102FA00020F001006072FFF743FF616A174A43187F
:102FB000A3620020009202EBC002694656686FF0DF
:102FC00000475DF820200AE01268A2EBC0056D6999
:102FD0009D4202D0ED1ABD4203D341F82020B242F7
:102FE000F2D10A48001F0168491C016004F1140174
:102FF0000098FFF71BF9607A40F0010060724046CC
:10300000FDF7E6F80020BDE8F8830000D8000020B6
:1030100070B50446407AC0070ED0FDF7D5F80546D6
:103020002046FDF77BFC607A20F0010060722846A4
:10303000FDF7CEF8002070BD4FF0FF3070BD0000EE
:103040002DE9FF4F8946044600EB090783B080460F
:103050004FF0FF3A4FF0200BA74202D25746C8F17B
:10306000FF390BE1252803D0BC4200D2207080E05C
:1030700000260599491C059108782D2811D02B2888
:1030800012D0202813D0232814D0302815D00A7845
:103090005546303A0A2A13D205A800F049F90546E8
:1030A0001AE046F01006E4E746F00406E1E746F0D1
:1030B0000806DEE746F02006DBE746F00106D8E723
:1030C0002A2809D10698491C059120C80690002D90
:1030D00002DA6D4246F010060598D44601782E2992
:1030E00018D1401C05900178A1F130020A2A04D2BF
:1030F00005A800F01DF9844607E02A2908D1401CE4
:103100000590069850F804CB0690BCF1000F01DA48
:103110004FF0000C059A00201178682901D06C2925
:1031200002D1521C0846059211780A236F2974D0E7
:103130000CDC63291FD004DC25296FD058290DD160
:1031400084E0642901D0692908D183E0702966D020
:1031500073292CD075297FD0782979D0BC4201D22F
:10316000252020700598641C0178E9B3BC4200D288
:103170002170641C7FE0F00608D458466D1E002DB7
:1031800004DDBC4200D22070641CF7E70698BC4204
:1031900010F8041B069000D22170584602E0BC4291
:1031A00000D22070641C6D1E002DF8DC63E00698D0
:1031B00002C8069001B941A1002000E0401CA842CD
:1031C00002D00A5C002AF9D1BCF1000F02DD604593
:1031D00000DD6046F2060BD45A462B466D1E834234
:1031E00006DDBC4202D200E054E02270641CF4E729
:1031F000002206E0BC4201D20B782370491C521C0D
:10320000641C8242F6DB5A4629466D1E814232DD3D
:10321000BC4200D22270641CF6E715E010E0681C86
:1032200002D1082546F00106CDE9005C0698029619
:10323000102304C806903946204619E00CE007E048
:10324000BC4296D2252011E7082305E046F040064F
:10325000102301E046F002066C2801D068281CD03B
:10326000069804C80690CDE9005C394620460296CF
:10327000FEF788FC04460598401C059005980078E8
:1032800000287FF4EFAEB9F1000F11D0BC420DD28F
:1032900020700DE0401E0590EDE7069830F8041B05
:1032A00006908AB2B007DED512B2DCE707F8010C4F
:1032B00007B0A4EB0800BDE8F08F0000284E554C85
:1032C0004C29000000207047002070470020704704
:1032D0000020704710B5FCF777FFFEF7BFFDFFF742
:1032E00019FBFFF70FFCFFF7DFFBFEF7E3FCFFF72F
:1032F0000FFCFFF78BFCFFF7F1FB002010BD000077
:1033000070B5054604680BE0A4F1140106A0FEF7B1
:103310006FFF2068A84202D004A0FEF769FF24686E
:10332000AC42F1D170BD0000257300002F000000F9
:1033300010B5014600206FF02F0307E0541C0C600D
:10334000127800EB800003EB400010440A68147808
:10335000303C0A2CF2D310BD2DE9F84F05461E462D
:1033600091460801DDF828B0DDF830A000F09EFAA3
:1033700001460DB3664800BF00F0B6F9044600F000
:1033800075FA87B2384600F091FA214600F0ECFA5F
:10339000042100F09AFB00F069FA4FF6FF7101EA90
:1033A000071108445B4C87B24FF0030835B1012D7B
:1033B00044D0022D7AD15DE05748DDE7A06940F4A2
:1033C0008040A061B9F1000F03D0B9F1010F11D015
:1033D0002BE0022E29D10823002201210920CDF85B
:1033E0000080FDF7FBFC0823012200210A20CDF814
:1033F000008018E0032E18D1A06940F00100A06100
:103400004648416841F0040141600823002201213F
:103410001620CDF80080FDF7E1FC082301220021F1
:103420001720CDF80080FDF7D9FCE06840F480401B
:10343000E060E06820F48040E06037E0E06940F45C
:103440000030E0610823002201210220CDF8008035
:10345000FDF7C4FC0823012200210320CDF80080E1
:10346000FDF7BCFC206940F400302061206920F4A5
:1034700000301AE0E06940F48020E0610823002277
:1034800001211A20CDF80080FDF7A8FC08230122B5
:1034900000211B20CDF80080FDF7A0FC206940F43E
:1034A00080202061206920F4802020611C4850F891
:1034B00025108F6050F82510CB6843EA0B32CA60A4
:1034C00050F825100B690B9A43EA02320A61BAF1EF
:1034D000000F08D050F82510CA684FF4007404EBB0
:1034E0004A231A43CA6050F82510CA6842F22C03D6
:1034F0001A43CA6050F8250001684906FCD50848FF
:10350000001F0321425DBDE8F84F0846FEF7E8BA08
:103510004054094C001002404054894C00000140C6
:103520001C000020044A52F82030596052F8200054
:1035300001684906FCD570471C00002010B518A092
:10354000FEF756FE1A4C21881AA0FEF751FE20887D
:10355000C00702D01DA0FEF74BFE2088800702D5D1
:103560001DA0FEF745FE2088400702D51DA0FEF7EE
:103570003FFE2088000702D51CA0FEF739FE2088F8
:10358000C00502D51BA0FEF733FE2088800502D5BA
:103590001BA0FEF72DFEBDE8104004A0FEF728BEDC
:1035A0007573616765206661756C743A0A00000086
:1035B0002AED00E05343425F434653525F55465362
:1035C000523A30782530325820000000554E44459C
:1035D00046494E5354522000494E56535441544587
:1035E00020000000494E5650432000004E4F4350EB
:1035F00020000000554E414C49474E4544200000F4
:1036000044495642595A45524F20000010B5FFF721
:1036100081F9002010BD000090EA010F48BF81F041
:10362000004100F1B281421A3CBF801A89184FEA6A
:10363000D0524FF07F4C1CEA410FA2EBD15318BF80
:103640009CEA026F00F03B804FF0004C4CEA0020F7
:103650004CEA012121FA03FC10EB0C0C1ED202F102
:10366000FF325FEA1C2040EBC25038BF70471CF0AD
:103670007F0F4FEA400C18BFBCF17F4F38BF704737
:10368000C3F12003994008BF20F00100BCF17F4F37
:1036900038BF7047A0F1C04000F061B94FEA3C006C
:1036A000000A40EBC25028BF1CF0FF0F4FEA400C4D
:1036B000E6D018BFBCF17F4F38BF7047EAE79CEAFD
:1036C000026F05D010EA5C0F08BF00F000407047A1
:1036D00010B500F0FEF800BF64FBBE3E014800F0EC
:1036E000C2B900BF0000C07F4FF47F0C1CEAD012AB
:1036F0001EBF1CEAD11392EA0C0F93EA0C0F00F0E4
:10370000858090EA010F48BF42F4807240F4000CBB
:1037100041F400002CF07F4120F07F4000B5814251
:10372000A2EB03020FF2081CACEB504EC0F10000FC
:103730009EF800E04FEA4E0E00FB0EFC38BF490039
:103740004FEA2C1C02F5FA020CFB0EF34FEACE1ED8
:103750004FEA112C4FEAC1210EEB635E42EB22428D
:103760000EFB0CFC4FEA1C5300FB03114FEA112C1B
:103770004FEA01310EFB0CFC4FEADC4C00FB0C1154
:10378000C14228BF09184CEB03335DF804EB10EB82
:10379000410143EBC250B2F57C0F38BF704729D5C9
:1037A00012F0F00F1CBF00F1C04000F00040704765
:1037B000008182838485868788898B8C8D8E8F910A
:1037C0009293959697999A9C9D9FA0A2A3A5A7A82E
:1037D000AAACAEB0B2B3B5B7B9BCBEC0C2C5C7C95A
:1037E000CCCED1D4D7D9DCDFE2E6E9ECF0F3F7FABE
:1037F000FE0000004FEA400C0CF1807CBCF17E4FD3
:1038000028BF7047B0F1C04000F0A9B890EA010F9E
:103810000CEAD11348BF42F48072624538BF634559
:1038200007D213F47F0F16D080EA010000F00040A9
:10383000704710B500F04DF8097EFC3E00F005B869
:1038400080EA010000F00040704780EA010000F0CB
:10385000004000F084B812F47F0F04BF02487047A4
:1038600080EA010000F07BB80000C07FC10DD1F1FB
:103870009E0206DB4FEA002343F0004323FA02F0E6
:103880007047004207D54FEA4001B1F1FE4F02D226
:103890004FF00000704710B500F01BF849922480EB
:1038A000002070476FEA200070470000B0FA80F3F4
:1038B00010FA03F2C3F19D030AD0D90501EB1220DF
:1038C000530638BF704700F1010008BF20F0010027
:1038D00070470EF1020E2EF0030E5EF8044B2442E8
:1038E00004D44FEA4102B2F17F4F11D84FEA4003AE
:1038F000B3F17F4F0CD80ED14FEAD07CB2F17F4F9D
:103900000CEB4C0C0CF1020C08BF4CEBD17C04E02E
:103910004FF0080C01E04FEAD17C0CEB4C0324FA89
:1039200003F404F00704B4F1040C06D20EEB840C8B
:10393000BDE810404CF0010C6047DFE80CF00708D0
:1039400002024FF00040A0F5800010BD0846420082
:1039500018BFD2F1807288BF00F0004010BDFF2177
:1039600041EAD050C005704780F0004090EA010F56
:103970007FF559AE81F0004100F007B890EA010FE1
:1039800048BF81F000413FF54EAE421A04D882F0A4
:103990000042A0EB020011444FEAD0524FF07F4C9E
:1039A0001CEA410FA2EBD15318BF9CEA026F4AD028
:1039B0004FF0004C4CEA00204CEA012121FA03FCB4
:1039C000B0EB0C0C0FD412F0FE0F36D05FEA4C00B7
:1039D0001DD5001240EBC25038BF70471CF03F0F9E
:1039E00018BF70470BE0A2F101025FEA1C2040EB18
:1039F000C25038BF70471CF07F0F18BF7047C3F12B
:103A00002003994014BF401E20F001007047800839
:103A10004FEA122308BF7047B0FA80FCA2EB0C02F9
:103A2000CCF1280C60FA0CF093EA122F04BF00EBE3
:103A3000C25070474FEAC3707047130A5FEADC1048
:103A400008BF7047F6E79CEA026F04D010EA5C0FEB
:103A500008BF0020704710B5FFF73BFF40DFF63E80
:103A600081F0004070470CF00F03092B08BF0820BD
:103A700000F051800A2B0BD0082B18BF704708BFED
:103A80001CF0400F0AD04FF000004FF000017047CB
:103A90001CF0400F18BF4FF0004070471CF0100F93
:103AA00008D020F0704300F07F4242EAD3014FEA91
:103AB0004370704700F0604021F07F4242EA00020C
:103AC00001F07F4040EA727070474FF0FF0212EA47
:103AD000D0521CBF92F0FF038B42C2BFD14200EB19
:103AE000C1507047002A0AD0002B0BD0002900F0EB
:103AF0000040A4BF40F0FE4040F40000704700F0DA
:103B00000040704743024FF00B0C18BF4CF0806C24
:103B10007FF4E4AD70471CF4801F11D01CF4E02F3B
:103B200003D06FEACC31490070474FF04050EFF3BB
:103B3000008222F0704242EA000282F3008870475D
:103B40004FF000007047000000000000000001027C
:103B50000304060708090000010002000100030039
:103B60000100020001000400010002000100030046
:103B70000100020001000500010002000100030035
:103B80000100020001000400010002000100030026
:103B90000100020001000600010002000100030014
:103BA0000100020001000400010002000100030006
:103BB00001000200010005000100020001000300F5
:103BC00001000200010004000100020001000300E6
:103BD00001000200010007000100020001000300D3
:103BE00001000200010004000100020001000300C6
:103BF00001000200010005000100020001000300B5
:103C000001000200010004000100020001000300A5
:103C10000100020001000600010002000100030093
:103C20000100020001000400010002000100030085
:103C30000100020001000500010002000100030074
:103C40000100020001000400010002000100030065
:103C50000100020001003031323334353637383953
:103C6000616263646566003031323334353637382B
:103C70003941424344454600252D2A2E7320707257
:103C800069202073746174757320202020202073B4
:103C9000702020202020737461636B2073697A6523
:103CA000206D61782075736564206C65667420747E
:103CB00069636B20206572726F720A0068656C6CB4
:103CC0006F007361792068656C6C6F20776F726C20
:103CD000640076657273696F6E0073686F77205247
:103CE000542D5468726561642076657273696F6ED5
:103CF00020696E666F726D6174696F6E005F5F63DD
:103D00006D645F76657273696F6E0073686F77209C
:103D100052542D5468726561642076657273696FC0
:103D20006E20696E666F726D6174696F6E006C698A
:103D300073745F746872656164006C697374207475
:103D40006872656164005F5F636D645F6C69737462
:103D50005F746872656164006C6973742074687262
:103D6000656164006C6973745F73656D006C697381
:103D7000742073656D6170686F726520696E207361
:103D8000797374656D005F5F636D645F6C697374F4
:103D90005F73656D006C6973742073656D61706825
:103DA0006F726520696E2073797374656D006C693C
:103DB00073745F6D61696C626F78006C69737420F5
:103DC0006D61696C20626F7820696E2073797374FD
:103DD000656D005F5F636D645F6C6973745F6D61D7
:103DE000696C626F78006C697374206D61696C2016
:103DF000626F7820696E2073797374656D006C69E9
:103E000073745F6D73677175657565006C69737444
:103E1000206D6573736167652071756575652069CF
:103E20006E2073797374656D005F5F636D645F6CA2
:103E30006973745F6D73677175657565006C69731F
:103E400074206D6573736167652071756575652094
:103E5000696E2073797374656D006C6973745F7437
:103E6000696D6572006C6973742074696D65722088
:103E7000696E2073797374656D005F5F636D645F55
:103E80006C6973745F74696D6572006C697374201A
:103E900074696D657220696E2073797374656D0045
:103EA0006C697374006C69737420616C6C20737935
:103EB0006D626F6C20696E2073797374656D005F3D
:103EC0005F636D645F68656C700052542D54687256
:103ED000656164207368656C6C2068656C702E0089
:103EE0005F5F636D645F7073004C69737420746806
:103EF000726561647320696E2074686520737973DC
:103F000074656D2E005F5F636D645F66726565004A
:103F100053686F7720746865206D656D6F727920C6
:103F2000757361676520696E2074686520737973A5
:103F300074656D2E006C6973745F6D656D006C69DE
:103F40007374206D656D6F7279207573616765207C
:103F5000696E666F726D6174696F6E00D1320008B0
:103F6000C9320008C5050008C5320008BD0A0008AE
:103F7000CD320008BC3C0008C23C00085D0F0008C0
:103F8000D23C0008DA3C00080D360008FD3C000871
:103F90000B3D00080D3600082E3D00083A3D000894
:103FA00061140008463D0008583D000861140008EF
:103FB000643D00086D3D000845130008863D00087B
:103FC000953D000845130008AE3D0008BB3D0008C4
:103FD0006D100008D33D0008E63D00086D10000894
:103FE000FE3D00080C3E00081D120008293E000896
:103FF0003D3E00081D1200085A3E0008653E0008BC
:10400000191600087A3E00088B3E000819160008B1
:10401000A03E0008A53E00087D0F0008BF3E000836
:10402000CA3E000871190008E03E0008E93E000899
:10403000330A0008053F0008103F0008290A00085D
:10404000353F00083E3F0008B11100086C400008F1
:1040500000000020E4000000280100085041000892
:10406000E4000020FC450000440100080024F400A6
:104070000000000000080140000C01400010014059
:10408000001401402526270000380140004400406C
:104090000048004000000000000000000000000098
:1040A0000000000000000000000000000000000010
:1040B0000000000000000000000000000000000000
:1040C00000000000000000000000000000000000F0
:1040D00000000000000000000000000001000000DF
:1040E000740000207400002078000000020000002E
:1040F0008400002084000020200000000500000053
:104100009400002094000020300000000600000011
:10411000A4000020A40000203C0000000A000000D1
:10412000B4000020B40000202C00000000000000BB
:10413000000000000000000000000000000000007F
:10414000000000000000000000000000000000006F
:04000005080000ED02
:00000001FF
