:020000040800F2
:10000000B046002089010008C70500086D020008FD
:10001000C5050008C1050008A10600080000000091
:100020000000000000000000000000009B0100082C
:10003000C305000800000000F7010008C90500081A
:10004000A3010008A3010008A3010008A301000800
:10005000A3010008A3010008A3010008A3010008F0
:10006000A3010008A3010008A3010008A3010008E0
:10007000A3010008A3010008A3010008A3010008D0
:10008000A3010008A3010008A3010008A3010008C0
:10009000A3010008A3010008A3010008A3010008B0
:1000A000A3010008A3010008A3010008A3010008A0
:1000B000A3010008A3010008A3010008A301000890
:1000C000A3010008A3010008A3010008A301000880
:1000D000A3010008A3010008A3010008A301000870
:1000E000A3010008A3010008A301000800F002F822
:1000F00000F03AF80AA090E8000C82448344AAF188
:100100000107DA4501D100F02FF8AFF2090EBAE885
:100110000F0013F0010F18BFFB1A43F0010318473B
:100120000C3100002C310000103A24BF78C878C18F
:10013000FAD8520724BF30C830C144BF04680C60ED
:10014000704700000023002400250026103A28BF35
:1001500078C1FBD8520728BF30C148BF0B60704739
:100160001FB51FBD10B510BD00F0EBF91146FFF72C
:10017000F7FF00F020FA00F009FA03B4FFF7F2FFEE
:1001800003BC00F011FA0000094880470948004705
:10019000FEE7FEE7FEE7FEE7FEE7FEE7FEE7FEE737
:1001A000FEE7FEE704480549054A064B7047000094
:1001B00045060008ED000008B0400020B0460020D1
:1001C000B0420020B0420020EFF3108072B67047BA
:1001D00080F310887047324A1368012B04D04FF027
:1001E000010313602F4A10602F4A11602F484FF00F
:1001F000805101607047EFF3108272B628480168A1
:1002000091B14FF0000101602648016829B1EFF378
:10021000098121E9F00F0068016023490968096834
:10022000B1E8F00F81F3098882F310884EF0040ED4
:1002300070471D4908601B494FF0000008601849CD
:100240004FF0010008601A481A49D0F8002041EA2E
:100250000201016015484FF08051016016480068A6
:10026000006880F3088861B662B670471EF0040F1C
:100270000CBFEFF30880EFF3098020E9F00F40F89E
:1002800004ED1EF0040F0CBF80F3088880F309888A
:1002900000B501F065FC5DF804EB4EF0040E70470C
:1002A00040000020380000203C00002004ED00E069
:1002B00020ED00E00000FFFF08ED00E040EA010350
:1002C000024630B59B0710D14FF0013400E008C260
:1002D00008C91D1B9D4315EAC41FF8D013F0FF0188
:1002E00002F8011B0DD01B0AF8E711F8013B002BA7
:1002F00002F8013B05D011F8013B002B02F8013B4D
:10030000F3D130BD10B5431C02E010F8011B71B1F0
:100310008107FAD14FF0013202C88C1A8C4314EADB
:10032000C211F9D0C01A0A0603D0C01E10BDC01AEF
:1003300010BD0A0401D0801E10BD0902FCD0401E71
:1003400010BD40EA010370B59B072ED14FF0013676
:10035000042A2AD308C810C99D1B9D43121F15EA01
:10036000C61517D0D8B2E1B2401A50EA056110D1D3
:1003700098B2A1B2401A50EA05410AD123F07F4059
:1003800024F07F41401A50EA052102D1180EA0EB5B
:10039000146070BDA342DBD018BA21BA884201D9DB
:1003A000012070BD4FF0FF3070BD0AB9002070BD54
:1003B00010F8013B11F8014B63B1A3420AD1521E60
:1003C00008D010F8013B11F8014B1BB1A34201D139
:1003D000521EEDD1181B70BD421E12F8013F002BBA
:1003E000FBD111F8013B002B02F8013BF9D170471A
:1003F00010B5203AC0F00B80B1E81850203AA0E8C0
:100400001850B1E81850A0E81850BFF4F5AF5FEAF3
:10041000027C24BFB1E81850A0E8185044BF18C9A6
:1004200018C0BDE810405FEA827C24BF51F8043B4D
:1004300040F8043B08BF7047D20728BF31F8023BA1
:1004400048BF11F8012B28BF20F8023B48BF00F835
:10045000012B70474FF000020429C0F0128010F009
:10046000030C00F01B80CCF1040CBCF1020F18BF90
:1004700000F8012BA8BF20F8022BA1EB0C0100F023
:100480000DB85FEAC17C24BF00F8012B00F8012BF6
:1004900048BF00F8012B70474FF0000200B513462B
:1004A00094469646203922BFA0E80C50A0E80C5094
:1004B000B1F12001BFF4F7AF090728BFA0E80C5045
:1004C00048BF0CC05DF804EB890028BF40F8042B3E
:1004D00008BF704748BF20F8022B11F0804F18BFAB
:1004E00000F8012B704710B5044610F0030F08BF49
:1004F00011F0030F40F015804FF0013E121FC0F2C3
:100500000E8051F8043BA3EB0E0C2CEA030C1CEA02
:10051000CE1C08BF40F8043BF0D0A1F1040102F169
:100520000402521E08DB11F8013B002B00F8013BCE
:10053000F7D11146FFF78EFF204610BD7047704778
:100540007047754600F02CF8AE46050069465346E4
:1005500020F00700854618B020B5FFF723FEBDE860
:1005600020404FF000064FF000074FF000084FF01A
:10057000000B21F00701AC46ACE8C009ACE8C009AB
:10058000ACE8C009ACE8C0098D46704710B5044618
:10059000AFF300802046BDE81040FFF7EEBD00003D
:1005A000004870475040002001491820ABBEFEE7CC
:1005B00026000200704710B502F078FB002010BD45
:1005C000FEE77047FEE7FEE710B501F0E3FB02F03F
:1005D00021F9BDE8104001F0EBBB0000144910B553
:1005E0004868144A10F00C03134803D0042B01D0C0
:1005F000082B09D002604968104AC1F30311515C0D
:100600000268CA40026010BD4A684B6802F470126A
:100610004FF0020413F4803F04EB924202D04B6887
:100620009B0301D5064B00E0024B5A43E2E7000072
:100630000010024000127A0000000020062E000880
:1006400000093D001448016841F4803101600168EF
:100650008903FCD5416841F480614160416841F4FF
:1006600080314160416841F4E01141600B490A6802
:1006700042F032020A60016841F080710160016855
:100680008901FCD5416841F002014160416801F0F7
:100690000F010A29FAD170470010024000200240E1
:1006A000FEE70000002806D00E4910F0FF0F03D02F
:1006B000C0B2085C401C704710F47F4F04D0C0F3F8
:1006C0000720085C0930704710F47F0F04D0C0F396
:1006D0000740085C1130704701EB1060007819305A
:1006E00070470000162E00082DE9F04F89B09246A1
:1006F0008B460646002400E0641C305D202803D0B1
:10070000092801D05C45F7D34FF0FF387CB3194876
:1007100004F10609184F056811E0062217A12868A0
:10072000FFF70FFE50B9286822463146801DFFF7BB
:1007300008FE18B9296811F8090020B10C3538688D
:100740008542EAD314E0AC688CB120216846FFF7FB
:10075000A3FE6A465946304600F0CCFF38B16946E0
:10076000A047CAF80000002009B0BDE8F08FFFE7FD
:100770004046F9E71C000020200000205F5F636D09
:10078000645F00002DE9FC411F460446DDE90831A5
:10079000DDE90A65143040600060C4E90827C4E957
:1007A0000A310A46232118461C3401F0F1FBD4E932
:1007B00003014218D4E90101104B121F01F0CEFAD7
:1007C00044F81A0B002004F801690D4A04F8036B81
:1007D000E4E8020544F8105901C404F83C0B01C4D4
:1007E00044F87409009023460190194604F144002E
:1007F00002F0A4F80020BDE8FC81000035250008C7
:100800005327000810B5029C24F001044472C0E98B
:1008100007120021C0E9093114304060006010BDAA
:10082000143001F01ABB70B50546FFF7CDFC296FF7
:10083000044609B1284688472046BDE87040FFF7C6
:10084000C7BC000010B51BA001F0C0FA1C4C2178F9
:100850001CA001F0BBFA2078C00702D01FA001F055
:10086000B5FA2078800702D51FA001F0AFFA2078F2
:10087000400702D51FA001F0A9FA2078000702D591
:1008800020A001F0A3FA2078C00602D520A001F034
:100890009DFA2078000607D509480F300168BDE8A9
:1008A00010401DA001F092BABDE810401EA001F05A
:1008B0008DBA0000627573206661756C743A0A0027
:1008C00029ED00E05343425F434653525F42465393
:1008D000523A3078253032582000000049425553B2
:1008E00045525220000000005052454349534552A2
:1008F00052200000494D5052454349534552522021
:1009000000000000554E53544B4552522000000049
:1009100053544B45525220005343422D3E424641D0
:10092000523A253038580A000A00000010B500F08D
:100930001FFB002010BD10B500F0F0FB002010BD23
:10094000104810B5416991F82110890703D40E4968
:100950000020087013E0016921B180220A48FFF7E6
:10096000C2FD0CE000F0C4FE08B108A100E009A13E
:100970000548FFF7A3FC09A10348FFF72DFD024836
:1009800010BD00001C000020B40000206D73682022
:100990000000000066696E73682000003E000000E1
:1009A0000349496911F8212F60F341020A70704729
:1009B0001C000020014AC2E9000170471C00002011
:1009C0007CB516491648FFF7F5FF7821012000F0A5
:1009D000DDFF144C6061D0B10A211520CDE9000182
:1009E0004FF480630022104910A001F07EFD0546FF
:1009F00000231A460FA1606901F0F2FB0120FFF706
:100A0000CFFF15B1284601F06DFE00207CBD0BA084
:100A100001F0DCF94FF0FF307CBD00002C32000803
:100A2000843100081C000020550A000874736865B2
:100A30006C6C000073687278000000006E6F206DAF
:100A4000656D6F727920666F72207368656C6C0AD1
:100A500000000000984D686910F8211F41F0010165
:100A60000170FFF76DFF01F0B1F9002601F074F895
:100A70000400FBD41B2C07D0686990F820100129D2
:100A800007D002290ED017E06969012081F8200003
:100A9000ECE75B2C02D080F820600DE0022180F8AA
:100AA0002010E3E780F82060412CDFD0422CDDD01D
:100AB000442C38D0432C43D0002CD7D0FF2CD5D099
:100AC000092C4ED07F2C75D0082C73D00D2C70D0F3
:100AD0000A2CFCD0B0F87210502901D3A0F8726033
:100AE000B0F87430B0F872108B427DD2CA1A00F19F
:100AF000220123301944184401F030FA6869B0F833
:100B0000741022300C54686990F82110C90706D07F
:100B1000B0F874102230014468A001F057F96869F8
:100B2000B0F87440A5E0B0F8740000289ED064A02E
:100B300001F04CF9686930F8741F491E018095E78F
:100B4000B0F87410B0F8722091428FD22230095C54
:100B50005CA001F03BF9696931F8740F401C088012
:100B600084E7002403E056A001F030F9641C6869B2
:100B7000B0F87400A042F6DC6C6953A0223401F096
:100B800025F900F0B5FD012802D1204600F0ECFC6B
:100B9000FFF7D6FE014622464CA001F017F968691E
:100BA0002230FFF7AFFB696921F8720F48805DE7DB
:100BB00000E03DE0B0F87420002AC0D0B0F8721018
:100BC000521E491E89B293B2A0F87210A0F8743078
:100BD000994224D9CA1A00F1230122301944184439
:100BE00001F0BCF9686900E049E0B0F87210223009
:100BF0000E546869B0F874102230014435A001F039
:100C0000E5F86869B0F8744003E02DA001F0DEF863
:100C1000641C6869B0F87200A04290DBF5E72FA071
:100C200001F0D4F86869B0F8721022300E541DE754
:100C300000F05EFD01280DD1686990F82100C00721
:100C400002D021A001F0C2F86869B0F87210223019
:100C500000F0E0FCFFF774FE01F0B8F8686950217D
:100C60002230FFF7F7FB686922E015A001F0AEF82B
:100C7000641C6869B0F87200A042F6DC0AE0223019
:100C80000C54686990F82100C00703D021460DA0DC
:100C900001F09CF86869B0F87210491C89B2A0F89C
:100CA0007210B0F87420521CA0F874205029BED3E2
:100CB00020F8726F4680D9E61C00002025730000E2
:100CC00008000000256300000A000000257325735A
:100CD00000000000082573202008000008200800FC
:100CE0002DE9F04F9646374ADDF824B0050996699C
:100CF00000F00F0AAF1C0124BC4026439661020796
:100D0000960E4FF00F0C0CFA06F8A6F1200703FA26
:100D100006F90CFA07FCBB402B4A040952F82440A0
:100D200011B1012918D03CE0BAF1080F0AD22168AC
:100D300021EA0801216052F825100B6843EA0903F3
:100D40000B602EE0616821EA0C01616052F8251009
:100D50004C6823434B6024E0BAF1080F11D221689C
:100D600021EA0801216052F825100B6843EA0903C3
:100D70000B6052F825100C680BFA06F31C430C604C
:100D80000FE0616821EA0C01616052F825104C689F
:100D900023434B6052F825300BFA07F15C6821437E
:100DA000596052F8251000F00F0301209840CA68DE
:100DB000BEF1000F01D0024300E08243CA60BDE8EB
:100DC000F08F0000001002400C00002005490209CD
:100DD00051F82210CA6800F00F03012098404240E9
:100DE000CA6070470C00002010B5124C20688007C4
:100DF00002D511A000F0EAFF2068400011D50D488F
:100E0000C01E007808B1FFF71DFD0A48001F0078DA
:100E100008B100F03DFB0748801E008808B101F0D2
:100E200085FF2068002804DABDE8104008A000F023
:100E3000CDBF10BD2CED00E06661696C6564207665
:100E40006563746F722066657463680A0000000051
:100E50006465627567206576656E740A000000003F
:100E600010B502A000F0B2FF002010BD48656C6C08
:100E70006F2052542D546872656164210A0000008D
:100E800070B50CA000F0A2FF0F48104D04680BE0F5
:100E900002220FA12068FFF754FA20B1D4E9001212
:100EA0000CA000F093FF0C3428688442F0D300209B
:100EB00070BD00002D2D46756E6374696F6E204CF9
:100EC0006973743A0A0000001C0000202000002012
:100ED0005F5F0000252D313673202D2D2025730AEC
:100EE000000000002DE9F04104461E4617460D465D
:100EF000084601F0BBF8001D2060257200206760E5
:100F0000C4E90360BDE8F0812DE9F0410D46002100
:100F10002961E96891B1297A81B12E6888B10446C6
:100F2000FFF752F90146A4F10C002A7A007A20F06A
:100F30008000904209D00846FFF74AF90020BDE83A
:100F4000F0813446FFF740F90146686800272468BD
:100F5000B44201D1002404E010C0EA687F1CBA4208
:100F6000F5D10846FFF734F920462F61E7E7000086
:100F700010B5074C07A0E16800F028FF0AA021691E
:100F800000F024FF6169BDE810400CA000F01EBF16
:100F90004C000020746F74616C206D656D6F727908
:100FA0003A2025640A00000075736564206D656D44
:100FB0006F7279203A2025640A0000006D6178691B
:100FC0006D756D20616C6C6F6361746564206D6517
:100FD0006D6F72793A2025640A0000002DE9F04116
:100FE00094B0002733A408230BAA022105A8FFF719
:100FF00079FF082080460146224631A000F0E6FE37
:10100000404600F0DFFB35A000F0E0FE05A93846C1
:10101000FFF77AFF0746002642E00BA850F826406B
:101020000C3CFFF7D1F8217A9DF81C2021F08001BB
:10103000914202D0FFF7CCF831E0FFF7C9F804F194
:1010400014006169054681421ED000F0EBFEA18BC1
:10105000CDE9001023460822414626A000F0B6FE46
:101060002C680BE0A4F1140126A000F0AFFE20686C
:10107000A84202D024A000F0A9FE2468AC42F1D11D
:1010800015A000F0A3FE0AE000F0CCFEA18BCDE994
:1010900000102346082241461CA000F097FE761C53
:1010A0000998B042B9DC002FB0D114B00020BDE8DF
:1010B000F081000073656D6170686F7265000000FB
:1010C000252D2A2E73207620202073757370656E6F
:1010D00064207468726561640A000000202D2D2D63
:1010E000202D2D2D2D2D2D2D2D2D2D2D2D2D2D0A60
:1010F00000000000252D2A2E2A732025303364207D
:1011000025643A00257300002F000000252D2A2EAB
:101110002A7320253033642025640A002DE9F0412C
:10112000B4B000263CA408232CAA012126A8FFF76E
:10113000D9FE0820804601462246394800F046FE86
:10114000404600F03FFB37A000F040FE26A93046A5
:10115000FFF7DAFE0646002554E02CA850F825409B
:101160000C3CFFF731F80746207A9DF8A01020F0DC
:101170008000884203D03846FFF72AF841E0782201
:10118000214607A8FFF734F93846FFF721F894F80D
:101190003500009023460822414632A000F016FE9A
:1011A00094F8340000F00F00012807D0022807D07F
:1011B00040B1042808D0032808D00AE02CA006E09B
:1011C0002EA004E030A002E032A000E034A000F045
:1011D000FDFDA06A014600E0401C0278232AFBD0F6
:1011E000E26A401A101A64235843B0FBF2F3276BEB
:1011F000206CCDE90007E069081A81182BA000F0E7
:10120000E5FD6D1C2A98A842A7DC002E9ED134B0C3
:101210000020BDE8F0810000746872656164000020
:10122000382F0008202D2D2D20202D2D2D2D2D2D5A
:101230002D202D2D2D2D2D2D2D2D2D2D202D2D2DF8
:101240002D2D2D2D2D2D2D20202D2D2D2D2D2D20F5
:10125000202D2D2D2D2D2D2D2D2D2D202D2D2D0AFB
:1012600000000000252D2A2E2A732025336420003B
:10127000207265616479202000000000207375737E
:1012800070656E640000000020696E697420202083
:101290000000000020636C6F7365202000000000D8
:1012A0002072756E6E696E67000000002030782530
:1012B00030387820307825303878202020202530AC
:1012C00032642525202020307825303878202530BC
:1012D00033640A00F0B593B0002626A408230BAAB5
:1012E0000A2104A8FFF7FEFD08272246394623A05D
:1012F00000F06CFD384600F065FA2AA000F066FDAB
:1013000004A93046FFF700FE0646002524E00BA89E
:1013100050F825400C3CFEF757FF217A9DF8182025
:1013200021F08001914202D0FEF752FF13E0FEF758
:101330004FFFD4E90901CDE90001234608223946CF
:1013400021A000F043FD607AC00701D024A000E096
:1013500026A000F03BFD6D1C0898A842D7DC002EAB
:10136000CED101F051FA014624A000F02FFD13B0B8
:101370000020F0BD74696D6572000000252D2A2ED5
:10138000732020706572696F64696320202074691E
:101390006D656F757420202020202020666C6167A9
:1013A0000A000000202D2D2D2D2D2D2D2D2D2D2031
:1013B0002D2D2D2D2D2D2D2D2D2D202D2D2D2D2D6A
:1013C0002D2D2D2D2D2D0A00252D2A2E2A7320306E
:1013D00078253038782030782530387820000000A3
:1013E0006163746976617465640A000064656163B1
:1013F000746976617465640A000000006375727236
:10140000656E74207469636B3A3078253038780AD9
:10141000000000001CB50A250526CDE900658023E3
:101420000022114911A001F060F8CDE900650446E1
:10143000802300220F4910A001F057F805462046EE
:1014400001F050F9284601F04DF9032000230090E7
:101450001A4601212D20FFF743FC2D20FFF7B6FC93
:10146000642001F0F3F8F8E7012D00087469643195
:1014700000000000152D00087469643200000000AF
:1014800010B500F09FFABDE81040FFF7C3BF0000A1
:1014900010B518A000F09AFC1B4C21781BA000F09E
:1014A00095FC2078C00702D01EA000F08FFC2078A9
:1014B000800702D51EA000F089FC2078000702D525
:1014C0001EA000F083FC2078C00602D51EA000F00C
:1014D0007DFC2078000607D50B480C300168BDE87C
:1014E00010401CA000F072BCBDE810401D4800F088
:1014F0006DBC00006D656D206D616E616765206675
:1015000061756C743A0A000028ED00E05343425FB5
:10151000434653525F4D4653523A30782530325845
:10152000200000004941434356494F4C2000000031
:101530004441434356494F4C200000004D554E5303
:10154000544B4552522000004D53544B45525220AB
:10155000000000005343422D3E4D4D41523A25308C
:1015600038580A009C2D00082DE9F04780460025D8
:1015700000782C4618B12248224F066831E0BDE8B9
:10158000F0470021084600F077B806221EA1306817
:10159000FEF7D7FE20BB306800F106094046FEF793
:1015A000B1FE024649464046FEF7CBFEC0B925B91A
:1015B0004C464846FEF7A6FE05464946204601E051
:1015C000401C491C02781AB10B780BB19A42F7D033
:1015D000001BA84200DA054649460DA000F0F6FBC4
:1015E0000C3638688642D0D3002C06D02A462146D5
:1015F0004046BDE8F04700F0D9BEBDE8F0870000E6
:101600001C000020200000205F5F636D645F00000D
:1016100025730A0038B5044601E0491E641C59B11F
:1016200020782028F9D00928F7D06A462046FFF70D
:101630005BF818B1204604E0002038BD009838BDA2
:10164000401C0178202901D00029F9D10021017026
:10165000214603A000F0BAFB4FF0FF3038BD000078
:1016600025733A20636F6D6D616E64206E6F742018
:10167000666F756E642E0A0070B50EA000F0A6FBB2
:101680001348144D04680CE0062213A12068FEF7ED
:1016900058FE28B9D4E9001211A0891D00F096FB6C
:1016A0000C3428688442EFD310A000F08FFB002098
:1016B00070BD000052542D546872656164207368D7
:1016C000656C6C20636F6D6D616E64733A0A000027
:1016D0001C000020200000205F5F636D645F00003D
:1016E000252D313673202D2025730A000A000000B5
:1016F0000120704770B5002315461C461A464BE082
:1017000000F8012B5B1C0678202E01D0092E01D198
:101710008B42F5D3082C11D321A000F057FB0026F3
:1017200006E000BF55F8261025A000F04FFB761C00
:10173000A642F7D321A000F049FB2FE08B422DD227
:10174000F6B2222E03D045F82400641C1BE0401C96
:1017500045F824005B1C641C08E05C2E04D146782C
:10176000222E01D1401C5B1C401C5B1C0678222EE3
:1017700001D08B42F1D38B4210D200F8012B5B1CBD
:101780000AE0401C5B1C0678202E03D0092E01D0F5
:101790008B42F6D38B4201D28B42B4D3204670BD2C
:1017A000546F6F206D616E79206172677320212004
:1017B0005765206F6E6C79205573653A0A000000FA
:1017C0002573200010B5044602E003A000F0FEFAE5
:1017D000641EFAD210BD00002D00000030B5134980
:1017E00043680A68134402F1080498420DD05D88EA
:1017F0005DB94D68AB4208D08D689D4200D18860CC
:101800005D6845605B68851A1D5183681344834297
:101810000BD05D88002D08D18D68854200D18B608A
:10182000416859604068991A015130BD4C00002050
:101830002DE9F04F85B09946DDE90EA5109CAB4629
:10184000630602D5DFF814C103E0DFF810C1ACF184
:10185000110CE30601D524F00104E30701D0302385
:1018600000E0202300260493A3070BD5002A02DA08
:101870002D26524206E0630701D52B2602E02307FE
:1018800000D520260023EE4622B930228DF8002014
:1018900001230CE0B9F10A0F14D002F00F0812096D
:1018A0001CF808800EF803805B1C002AF2D1AB42C2
:1018B00000DD1D46AAEB050214F0110F4FF02007C2
:1018C00008D015E00A27B2FBF7F807FB1828B2FB8F
:1018D000F7F2E5E73EB1002A05DD521E03E088423B
:1018E00000D20770401CB2F1000CA2F10102F6DC3C
:1018F00026B1884200D20670401C521EE40605D56F
:1019000008E0884201D2049C0470401C141EA2F11D
:101910000102F6DC30242E466D1E9E420ADD88420E
:1019200000D20470401CF6E7884201D2E55C0570E5
:10193000401C00E074461D1EA3F1010307DDBBF14E
:10194000000FF1D103E0884200D20770401C131E43
:10195000A2F10102F7DC05B0BDE8F08F272F0008E7
:101960001CB514210A20CDE900014FF400730022B8
:10197000034904A000F0B9FDBDE81C4000F0B2BE70
:10198000811400086D61696E0000000070B5484365
:10199000044600F06BFA050003D02246002100F057
:1019A000F7FA284670BD000070B5044C044D02E003
:1019B00020688047241DAC42FAD370BD7431000802
:1019C0007831000870B5044C044D02E0206880476F
:1019D000241DAC42FAD370BD783100088031000874
:1019E00010B5FEF7F1FB044A5188491C5180BDE84F
:1019F0001040FEF7EDBB00009400002010B5FEF78C
:101A0000E3FB0B4C6188491E09B2618000290ADCA6
:101A100000216180FEF7DCFB6068002807D0BDE88C
:101A2000104000F065BBBDE81040FEF7D1BB10BD13
:101A30009400002070B5002833D01A4D29688842E0
:101A40002FD3696888422CD2A0F10C044FF0FF31EB
:101A5000154800F0FCFB60884FF4F55610B1208863
:101A6000B04208D011A000F0B1F923886288214665
:101A700015A000F0ABF9002060802680A8688442A1
:101A800000D2AC6029686068611A401A2969081A96
:101A900028612046FFF7A2FEBDE87040024800F032
:101AA000B1BB70BD4C00002030030020746F206675
:101AB00072656520612062616420646174612062E6
:101AC0006C6F636B3A0A00006D656D3A20307825C3
:101AD0003038782C207573656420666C61673A2015
:101AE00025642C206D6167696320636F64653A200B
:101AF0003078253034780A000048704750040020C0
:101B0000004870475040002010B5FEF767FD1048B0
:101B10004FF47A710068B0FBF1F0401EB0F1807FA5
:101B20000AD24FF0E02148610A4AF02082F8140DF1
:101B30000020886107200861FFF736FFFFF7E0FF0C
:101B40000446FFF7D9FF2146BDE8104000F042BC33
:101B5000000000200FE000E0FF2070477047000009
:101B600070B50546041D2D48016819B128468847FF
:101B7000002851D02AA0E16B00F028F92CA0216A9E
:101B800000F024F92EA0616A00F020F930A0A16ACB
:101B900000F01CF932A0E16A00F018F934A02168C5
:101BA00000F014F936A0616800F010F938A0A168BF
:101BB00000F00CF93AA0E16800F008F93CA02169B6
:101BC00000F004F93EA0616900F000F940A0A169AD
:101BD00000F0FCF842A0E16900F0F8F844A0216BA5
:101BE00000F0F4F846A0616B00F0F0F848A0A16B9B
:101BF00000F0ECF82878400708D500F04DFD0146CC
:101C000047A000F0E3F8FFF789FA02E04CA000F0EB
:101C1000DDF8FFF7E9F8FEE770BD000034000020B2
:101C20007073723A203078253038780A000000004E
:101C30007230303A203078253038780A00000000C1
:101C40007230313A203078253038780A00000000B0
:101C50007230323A203078253038780A000000009F
:101C60007230333A203078253038780A000000008E
:101C70007230343A203078253038780A000000007D
:101C80007230353A203078253038780A000000006C
:101C90007230363A203078253038780A000000005B
:101CA0007230373A203078253038780A000000004A
:101CB0007230383A203078253038780A0000000039
:101CC0007230393A203078253038780A0000000028
:101CD0007231303A203078253038780A0000000020
:101CE0007231313A203078253038780A000000000F
:101CF0007231323A203078253038780A00000000FE
:101D0000206C723A203078253038780A00000000C4
:101D10002070633A203078253038780A00000000BF
:101D200068617264206661756C74206F6E207468DF
:101D3000726561643A2025730D0A0D0A00000000E7
:101D400068617264206661756C74206F6E206861D2
:101D50006E646C65720D0A0D0A00000070B50446D1
:101D6000121D22F007000022094D403840F8225091
:101D7000521C102AFAD301620021416281624FF0A5
:101D8000807200F13005C263C16285E81A0070BD3F
:101D9000EFBEADDE10B5FEF717FA044A1178491C04
:101DA0001170BDE81040FEF713BA00004800002093
:101DB00010B5FEF709FA044A1178491E1170BDE802
:101DC0001040FEF705BA0000480000200FB47F2144
:101DD00010B503AB0448029A00F01EFE0248FFF75C
:101DE000BDFE10BC5DF814FBB0020020026851601B
:101DF00002680A60016048607047026851600268CA
:101E00000A600160486070470268516002680A60B9
:101E10000160486070474268116042684A604160F2
:101E2000086070470246002100E0491C00689042AB
:101E3000FBD108467047D0E900124A60D0E9001291
:101E40001160406000607047D0E900124A60D0E93C
:101E500000121160406000607047D0E900124A60D3
:101E6000D0E9001211604060006070472DE9F04732
:101E7000002807D0374CC01C20F00306E0688642DB
:101E800002D90020BDE8F0870C2E00D20C264FF0BE
:101E9000FF31314800F0DBF9D4F808C02168E76869
:101EA000ACEB0100BA1B4FE00D186B88E3BB6B680D
:101EB0001B1A0C3BB34246D36A6806F11803121A88
:101EC0000C3A4FF001094FF4F55A9A422DD3831979
:101ED0000C33CA184FF00008A2F800A0A2F8028044
:101EE000D5F80480C2E901806B60A5F802905068C3
:101EF0000C37B84202D001F1080283502069304407
:101F00000C3020616269824200D26061A5F800A0B5
:101F1000654512D1A06842887AB1626890420CD0BF
:101F200040680844A060F6E70DE0A5F802906868F4
:101F30006A1A801A22691044E3E7074800F062F940
:101F400005F10C009EE768688242ADD8024800F0B7
:101F500059F996E74C0000203003002010B50346E5
:101F6000994211D28C189C420ED9811804E000BF0E
:101F700014F8013D01F8013D521EF9D210BD00BF19
:101F800011F8014B03F8014B521EF9D210BD0000AD
:101F900010B50346CCB2042A1AD3810718D11946CA
:101FA00044EA042343EA034306E008C1103A08C1A7
:101FB00041F8083B41F8043C102AF6D201E008C180
:101FC000121F042AFBD20B4602E000BF03F8014BAC
:101FD000521EFBD210BD2DE9F0410F46064600F01F
:101FE00045F80546C068FFF741FF040019D00021FD
:101FF000EA68FFF7CDFF267200206072082239469A
:10200000204600F0D3F9FEF7DFF8064604F10C0194
:10201000281DFFF7EBFE3046FEF7DAF82046BDE854
:10202000F0810020FBE770B5044600202072FEF727
:10203000CBF8054604F10C00FFF7FDFE2846FEF73D
:10204000C7F82046BDE87040FFF7F4BC70B5044601
:1020500000202072FEF7B8F8054604F10C00FFF7E7
:10206000EAFE2846BDE87040FEF7B2B8074A0021F4
:1020700002EB01131B78834202D102EB011070477F
:10208000491C0329F4DB0020704700006400002095
:102090002DE9F041044616460D460846FFF7E6FFD7
:1020A0000746FFF79DFC381D796800E0096881420A
:1020B000FCD1FFF7A3FC45F08000207208223146D6
:1020C000204600F073F9FEF77FF8054604F10C0195
:1020D000381DFFF78BFE2846BDE8F041FEF778B8C3
:1020E000007A000601D501207047002070470000EB
:1020F00070B5FEF769F8114C05466088B0B9A06864
:10210000FEF7D0FA0E49401E626851F830101439BB
:1021100091420BD020700B486160007801F11C01E6
:10212000002802F11C0006D0FEF755F82846BDE84D
:102130007040FEF74DB8FEF74EF8F7E79400002028
:10214000500300204800002010B50446FEF73CF87C
:10215000024694F834000E4920F00F00401C84F829
:10216000340094F8350001EBC00104F114004B6811
:1021700018604B68A361486006486161A16B836881
:1021800019438160BDE810401046FEF721B80000F9
:10219000500300209400002010B50446FEF714F808
:1021A00004F11401D1E900235360D1E900231A603E
:1021B000A161616194F83520074951F8323001EB93
:1021C000C2018B4204D10549A36B8A689A438A6095
:1021D000BDE81040FDF7FCBF500300209400002034
:1021E0002DE9F04116460A461F4605460221FFF733
:1021F0004FFF05F11404AC616C61AE836F72002077
:10220000BDE8F08170B50446FDF7DEFF0546606964
:1022100004F11401884208D0143800F01EFA284650
:10222000FDF7D6FFFFF764FF09E0A08B4FF6FF71C3
:10223000884206D2401CA0832846FDF7C9FF002033
:1022400070BD2846FDF7C4FF6FF0020070BD2DE998
:10225000F3410446FDF7B8FF0746A08B28B1401EA6
:10226000A0833846FDF7B4FF46E0019870B100F056
:1022700013FA06460020306304F11405647A3046F0
:1022800000F046FAF4B1012C21D106E03846FDF702
:102290009FFF6FF00100BDE8FC812C680EE096F80E
:1022A000351094F82120A4F11400914205D206F1D2
:1022B00014011430FFF7AFFD02E02468AC42EED108
:1022C000AC4204D106F114012846FFF7A4FD0198A1
:1022D000002809DD06F1440001AA0021044600F0AF
:1022E000F5FA204600F03EFB3846FDF771FFFFF798
:1022F000FFFE306B0028CED10020CCE708B509A046
:10230000FFF764FD0AA0FFF761FD12A0009005230E
:102310000122032112A0FFF759FDBDE8084018A0D3
:10232000FFF754BD0A205C207C202F0A000000002B
:102330002D205254202D20202020205468726561C9
:1023400064204F7065726174696E6720537973748D
:10235000656D0A004465632033312032303231002C
:10236000202F207C205C202020202025642E256426
:102370002E2564206275696C642025730A000000B4
:102380002032303036202D203230323020436F70F2
:102390007972696768742062792072742D7468722A
:1023A000656164207465616D0A00000010B5002A43
:1023B00007D0034611F8014B03F8014B2CB1521E14
:1023C000F8D110BD03F8011B00E00021521EF9D125
:1023D00010BD00000A46C11C10B522F0030321F015
:1023E0000301182B20D9A3F118048C421CD3114CE3
:1023F000581A18382160E0604FF4F5520A80002323
:102400000C30C1E901034B804B68194461600A80BC
:1024100001224A8048608860002307A10848FFF72E
:10242000DFFE2068A06010BD0146BDE8104005A099
:10243000FFF7CCBC4C000020686561700000000014
:10244000300300206D656D20696E69742C20657203
:10245000726F7220626567696E2061646472657371
:102460007320307825782C20616E6420656E64209E
:102470006164647265737320307825780A00000007
:1024800010B50A4900230A4C4B80184604EBC002E1
:10249000401C526012602028F8DB1F20087003489F
:1024A0004B600C308B604060006010BD94000020D9
:1024B0005003002010B5074CA068FEF7F3F806495A
:1024C000401E51F8300014386060BDE810401C30E8
:1024D000FDF7AFBE9400002050030020014840608B
:1024E00000607047AC00002070472DE9FF47894627
:1024F000DDE90C76824601461D4690460120FFF735
:102500006AFD041E0DD02846FFF7B0FC60B10396AB
:102510008DE8A10043464A4651462046FEF732F96F
:10252000204604B0BDE8F0872046FFF77CFD002080
:10253000F7E7000070B514480468FDF745FE05464E
:102540002046FEF770F92046FFF726FE042084F8A7
:10255000340004F1440000F0DDF92046FFF7C0FD2F
:1025600001280CD004F114010848FFF746FC00BF15
:10257000FFF7BEFD2846BDE87040FDF729BE2046A6
:10258000FFF764FDF4E7000098000020A0000020A1
:1025900000F002F8FCE700002DE97040FDF714FEA2
:1025A00005460F480168814214D00168A1F1140466
:1025B000D1E900024260D1E900021060496009607F
:1025C0004869FFF737FA2046FFF72DFD2846FDF74B
:1025D000FFFDE3E72846BDE87040FDF7F9BD0000C8
:1025E000A00000201FB5202308481F22D9008DE835
:1025F0000F000023064A07A1783800F00FF804B056
:102600000248BDE81040783800F06CB8B0010020F6
:10261000912500087469646C650000002DE9FF5F76
:1026200092460EAA0C4692E8E0010A469946834675
:102630000121FFF72DFD8DE8E0014B465246214672
:102640005846FEF79FF804B0BDE8F09F10B500F0C3
:10265000C1F8BDE8104000F025B870B5044690F808
:10266000340000F00F00022802D04FF0FF3070BDA0
:10267000FDF7AAFD054604F11400FFF7E5FB04F1A0
:10268000440000F0B1F92846FDF7A2FD2046FFF70F
:102690005BFD002070BD000001480068704700002D
:1026A00098000020F1B5FDF78FFD05460C48046841
:1026B000204600F02DF804F144006A460021064649
:1026C00000F004F9304600F04DF92846FDF780FD92
:1026D000FFF70EFD206B801C00D120630020F8BDA9
:1026E0009800002010B590F83610012280F83510BF
:1026F0008A400221826380F83410FFF7AEFF03485E
:10270000006808B1FFF7F4FC002010BD980000201D
:1027100070B5044690F8340000F00F00012802D094
:102720004FF0FF3070BDFDF74FFD05462046FFF727
:1027300033FD94F8340020F00F00801C84F834003E
:1027400004F1440000F050F92846FDF741FD002057
:1027500070BD10B504466FF00100206304F1140051
:10276000FFF772FB2046FFF7EFFCBDE81040FFF7D4
:10277000BFBC000070B5FDF727FD0646134804688E
:1027800094F8340000F00F00012819D1D4E90501B4
:10279000884215D004F114000546FFF755FB94F864
:1027A00035000B4901EBC00041680D60416869606C
:1027B000456028603046FDF70BFDFFF799FC02E00D
:1027C0003046FDF705FD002070BD00009800002098
:1027D00050030020002802DA4FF0FF3070474FF41A
:1027E0007A7190FBF1F290FBF1F301FB130000EB27
:1027F00040034A43C3EBC0104B1E03EBC00090FBE9
:10280000F1F0104470470000014800687047000074
:1028100044000020094810B50168491C0160FFF719
:102820003BFF016C491E016403D1C16B0164FFF7DA
:10283000A1FFBDE8104000F003B8000044000020F4
:102840002DE9FC41CDF804D0CDF800D0FFF7DCFF36
:102850000646FDF7B9FC07461B4D2DE060696FF099
:102860000041301A143C884229D22046FDF7D8FF97
:10287000607A810702D420F00100607204F1140133
:1028800088466846FFF7C0FAD4E907108847FFF783
:10289000BBFF06460098694688420DD04046FFF7C8
:1028A000DCFA607A810707D5C10705D020F0010066
:1028B0006072204600F056F82C68AC42CED1384603
:1028C000FDF786FCBDE8FC81AC00002070B5154624
:1028D0000E460446FDF778FC052E17D2DFE806F019
:1028E0000503080C1100616A0FE0296861620DE0C0
:1028F000617A21F0020102E0617A41F00201617225
:1029000004E0617AC90700D001212960FDF760FC6D
:10291000002070BD70B50446FDF756FC0546204604
:10292000FDF77EFF607A20F0010060722846FDF717
:102930004FFC2046FFF78AFB002070BD2DE9F843CD
:102940009046DDE908450A461F4606460A21FFF77C
:102950009FFB23463A46414630460095FDF752FF1D
:10296000BDE8F8832DE9F8430446FDF72DFC8046C9
:102970002046FDF755FF607A20F001006072FFF7F6
:1029800043FF616A174A4318A3620020009202EBDA
:10299000C002694656686FF000475DF820200AE0E3
:1029A0001268A2EBC0056D699D4202D0ED1ABD42CE
:1029B00003D341F82020B242F2D10A48001F016837
:1029C000491C016004F114010098FFF71DFA607AB8
:1029D00040F0010060724046FDF7FAFB0020BDE8C0
:1029E000F8830000AC00002070B50446407AC007B0
:1029F0000ED0FDF7E9FB05462046FDF711FF607A92
:102A000020F0010060722846FDF7E2FB002070BD57
:102A10004FF0FF3070BD00002DE9FF4F894604469E
:102A200000EB090783B080464FF0FF3A4FF0200BD0
:102A3000A74202D25746C8F1FF390BE1252803D03F
:102A4000BC4200D2207080E000260599491C059107
:102A500008782D2811D02B2812D0202813D0232815
:102A600014D0302815D00A785546303A0A2A13D2A5
:102A700005A800F030F905461AE046F01006E4E734
:102A800046F00406E1E746F00806DEE746F02006D9
:102A9000DBE746F00106D8E72A2809D10698491C49
:102AA000059120C80690002D02DA6D4246F010060E
:102AB0000598D44601782E2918D1401C059001783C
:102AC000A1F130020A2A04D205A800F004F98446D4
:102AD00007E02A2908D1401C0590069850F804CB3D
:102AE0000690BCF1000F01DA4FF0000C059A0020AF
:102AF0001178682901D06C2902D1521C0846059230
:102B000011780A236F2974D00CDC63291FD004DCF0
:102B100025296FD058290DD184E0642901D0692975
:102B200008D183E0702966D073292CD075297FD015
:102B3000782979D0BC4201D2252020700598641CE8
:102B40000178E9B3BC4200D22170641C7FE0F0063A
:102B500008D458466D1E002D04DDBC4200D2207002
:102B6000641CF7E70698BC4210F8041B069000D2DC
:102B70002170584602E0BC4200D22070641C6D1ED9
:102B8000002DF8DC63E0069802C8069001B941A167
:102B9000002000E0401CA84202D00A5C002AF9D1C3
:102BA000BCF1000F02DD604500DD6046F2060BD48B
:102BB0005A462B466D1E834206DDBC4202D200E01F
:102BC00054E02270641CF4E7002206E0BC4201D20B
:102BD0000B782370491C521C641C8242F6DB5A4657
:102BE00029466D1E814232DDBC4200D22270641C37
:102BF000F6E715E010E0681C02D1082546F0010652
:102C0000CDE9005C06980296102304C80690394668
:102C1000204619E00CE007E0BC4296D2252011E7DF
:102C2000082305E046F04006102301E046F00206C6
:102C30006C2801D068281CD0069804C80690CDE9FD
:102C4000005C394620460296FEF7F2FD04460598E0
:102C5000401C05900598007800287FF4EFAEB9F18C
:102C6000000F11D0BC420DD220700DE0401E059027
:102C7000EDE7069830F8041B06908AB2B007DED55F
:102C800012B2DCE707F8010C07B0A4EB0800BDE8BE
:102C9000F08F0000284E554C4C2900000020704752
:102CA00000207047002070470020704710B5FDF7E6
:102CB0008BFAFEF729FFFFF721FBFFF70FFCFFF769
:102CC000DFFBFEF74DFEFFF70FFCFFF78BFCFFF776
:102CD000F1FB002010BD10B5014600206FF02F035E
:102CE00007E0541C0C60127800EB800003EB4000FE
:102CF00010440A681478303C0A2CF2D310BD00004E
:102D0000034C2068401C20606420FFF79FFCF8E71C
:102D100004000020044C4FF47A756068401C606029
:102D20002846FFF793FCF8E70400002010B518A030
:102D3000FFF74CF81A4C21881AA0FFF747F82088B3
:102D4000C00702D01DA0FFF741F82088800702D5F8
:102D50001DA0FFF73BF82088400702D51DA0FFF714
:102D600035F82088000702D51CA0FFF72FF820882F
:102D7000C00502D51BA0FFF729F82088800502D5E1
:102D80001BA0FFF723F8BDE8104004A0FFF71EB812
:102D90007573616765206661756C743A0A0000009E
:102DA0002AED00E05343425F434653525F5546537A
:102DB000523A30782530325820000000554E4445B4
:102DC00046494E5354522000494E5653544154459F
:102DD00020000000494E5650432000004E4F435003
:102DE00020000000554E414C49474E45442000000C
:102DF00044495642595A45524F20000010B5FFF73A
:102E00007DFA002010BD000000000000000001025B
:102E10000304060708090000010002000100030086
:102E20000100020001000400010002000100030093
:102E30000100020001000500010002000100030082
:102E40000100020001000400010002000100030073
:102E50000100020001000600010002000100030061
:102E60000100020001000400010002000100030053
:102E70000100020001000500010002000100030042
:102E80000100020001000400010002000100030033
:102E90000100020001000700010002000100030020
:102EA0000100020001000400010002000100030013
:102EB0000100020001000500010002000100030002
:102EC00001000200010004000100020001000300F3
:102ED00001000200010006000100020001000300E1
:102EE00001000200010004000100020001000300D3
:102EF00001000200010005000100020001000300C2
:102F000001000200010004000100020001000300B2
:102F100001000200010030313233343536373839A0
:102F20006162636465660030313233343536373878
:102F30003941424344454600252D2A2E73207072A4
:102F40006920207374617475732020202020207301
:102F5000702020202020737461636B2073697A6570
:102F6000206D61782075736564206C6566742074CB
:102F700069636B20206572726F720A0068656C6C01
:102F80006F007361792068656C6C6F20776F726C6D
:102F9000640076657273696F6E0073686F77205294
:102FA000542D5468726561642076657273696F6E22
:102FB00020696E666F726D6174696F6E005F5F632A
:102FC0006D645F76657273696F6E0073686F7720EA
:102FD00052542D5468726561642076657273696F0E
:102FE0006E20696E666F726D6174696F6E006C69D8
:102FF00073745F746872656164006C6973742074C3
:103000006872656164005F5F636D645F6C697374AF
:103010005F746872656164006C69737420746872AF
:10302000656164006C6973745F73656D006C6973CE
:10303000742073656D6170686F726520696E2073AE
:10304000797374656D005F5F636D645F6C69737441
:103050005F73656D006C6973742073656D61706872
:103060006F726520696E2073797374656D006C6989
:1030700073745F74696D6572006C69737420746930
:103080006D657220696E2073797374656D005F5F82
:10309000636D645F6C6973745F74696D6572006CF5
:1030A0006973742074696D657220696E2073797319
:1030B00074656D006C697374006C69737420616C65
:1030C0006C2073796D626F6C20696E2073797374F4
:1030D000656D005F5F636D645F68656C700052547E
:1030E0002D546872656164207368656C6C20686536
:1030F0006C702E005F5F636D645F7073004C69736A
:1031000074207468726561647320696E20746865E8
:103110002073797374656D2E005F5F636D645F6605
:103120007265650053686F7720746865206D656D02
:103130006F727920757361676520696E20746865A8
:103140002073797374656D2E006C6973745F6D659F
:103150006D006C697374206D656D6F727920757385
:1031600061676520696E666F726D6174696F6E006C
:10317000A92C0008A12C00089D2C0008C1090008FA
:10318000A52C00087C2F0008822F0008610E000883
:10319000922F00089A2F0008FD2D0008BD2F00086F
:1031A000CB2F0008FD2D0008EE2F0008FA2F000895
:1031B0001D11000806300008183000081D11000815
:1031C000243000082D300008DD0F000846300008CC
:1031D00055300008DD0F00086E3000087930000817
:1031E000D51200088E3000089F300008D512000864
:1031F000B4300008B9300008810E0008D330000850
:10320000DE30000879160008F4300008FD300008B0
:103210003709000819310008243100082D09000879
:103220004931000852310008710F00084C32000883
:1032300000000020B400000028010008003300084E
:10324000B4000020FC450000440100080024F40004
:10325000000000000000000000080140000C0140D8
:1032600000100140001401400000000000000000B8
:10327000000000000000000000000000000000004E
:10328000000000000000000000000000000000003E
:10329000000000000000000000000000000000002E
:1032A000000000000000000000000000000000001E
:1032B0000100000068000020680000207800000085
:1032C00002000000780000207800002020000000AC
:1032D0000A00000088000020880000202C00000068
:1032E00000000000000000000000000000000000DE
:1032F00000000000000000000000000000000000CE
:04000005080000ED02
:00000001FF
