:020000040800F2
:10000000600600206D0100082F0200082B02000886
:100010002D02000827020008AD02000800000000C1
:100020000000000000000000000000003302000893
:100030002902000800000000310200083502000813
:100040008701000887010008870100088701000870
:100050008701000887010008870100088701000860
:100060008701000887010008870100088701000850
:100070008701000887010008870100088701000840
:100080008701000887010008870100088701000830
:100090008701000887010008870100088701000820
:1000A0008701000887010008870100088701000810
:1000B0008701000887010008870100088701000800
:1000C00087010008870100088701000887010008F0
:1000D00087010008870100088701000887010008E0
:1000E00087010008870100088701000800F002F876
:1000F00000F02CF80AA090E8000C82448344AAF196
:100100000107DA4501D100F021F8AFF2090EBAE893
:100110000F0013F0010F18BFFB1A43F0010318473B
:1001200090010000A001000000230024002500260B
:10013000103A28BF78C1FBD8520728BF30C148BF4A
:100140000B6070471FB51FBD10B510BD00F031F832
:100150001146FFF7F7FF00F0AAF800F04FF803B4DC
:10016000FFF7F2FF03BC00F057F800000948804792
:1001700009480047FEE7FEE7FEE7FEE7FEE7FEE789
:10018000FEE7FEE7FEE7FEE704480549054A064BA1
:100190007047000039020008ED00000860000020F0
:1001A0006006002060020020600200207047704757
:1001B0007047754600F02CF8AE4605006946534678
:1001C00020F00700854618B020B5FFF7DDFFBDE839
:1001D00020404FF000064FF000074FF000084FF0AE
:1001E000000B21F00701AC46ACE8C009ACE8C0093F
:1001F000ACE8C009ACE8C0098D46704710B50446AC
:10020000AFF300802046BDE81040FFF7A8BF000014
:10021000004870470000002001491820ABBEFEE7EF
:10022000260002007047FEE77047FEE7FEE7FEE7A4
:1002300070477047704700001948016841F48031E9
:10024000016001688903FCD5416841F48031416057
:10025000416841F4E0114160416841F480614160CE
:1002600010490A6842F032020A60016841F0807168
:10027000016001688901FCD5416841F002014160DB
:10028000416801F00F010A29FAD1816941F00101A9
:1002900081610548416841F000714160704700008C
:1002A000001002400020024000000140FEE7FEE78F
:1002B000C0020008000000206006000028010008BD
:04000005080000ED02
:00000001FF
