:020000040800F2
:1000000070060020890100084B0200084702000822
:100010004902000843020008C9020008000000006D
:100020000000000000000000000000004F02000877
:1000300045020008000000004D02000851020008BF
:10004000A3010008A3010008A3010008A301000800
:10005000A3010008A3010008A3010008A3010008F0
:10006000A3010008A3010008A3010008A3010008E0
:10007000A3010008A3010008A3010008A3010008D0
:10008000A3010008A3010008A3010008A3010008C0
:10009000A3010008A3010008A3010008A3010008B0
:1000A000A3010008A3010008A3010008A3010008A0
:1000B000A3010008A3010008A3010008A301000890
:1000C000A3010008A3010008A3010008A301000880
:1000D000A3010008A3010008A3010008A301000870
:1000E000A3010008A3010008A301000800F002F822
:1000F00000F03AF80AA090E8000C82448344AAF188
:100100000107DA4501D100F02FF8AFF2090EBAE885
:100110000F0013F0010F18BFFB1A43F0010318473B
:100120000003000020030000103A24BF78C878C103
:10013000FAD8520724BF30C830C144BF04680C60ED
:10014000704700000023002400250026103A28BF35
:1001500078C1FBD8520728BF30C148BF0B60704739
:100160001FB51FBD10B510BD00F031F81146FFF7E7
:10017000F7FF00F045F900F04FF803B4FFF7F2FF86
:1001800003BC00F057F800000948804709480047C1
:10019000FEE7FEE7FEE7FEE7FEE7FEE7FEE7FEE737
:1001A000FEE7FEE704480549054A064B7047000094
:1001B00055020008ED0000087000002070060020C5
:1001C000700200207002002070477047704775462B
:1001D00000F02CF8AE4605006946534620F00700B3
:1001E000854618B020B5FFF7DDFFBDE820404FF091
:1001F00000064FF000074FF000084FF0000B21F011
:100200000701AC46ACE8C009ACE8C009ACE8C009DD
:10021000ACE8C0098D46704710B50446AFF30080C6
:100220002046BDE81040FFF7A8BF00000048704717
:100230001000002001491820ABBEFEE72600020096
:100240007047FEE77047FEE7FEE7FEE7704770473E
:10025000704700001948016841F48031016001686D
:100260008903FCD5416841F480314160416841F423
:10027000E0114160416841F48061416010490A68C1
:1002800042F032020A60016841F080710160016849
:100290008901FCD5416841F002014160416801F0EB
:1002A0000F010A29FAD1816941F0010181610548F4
:1002B000416841F000714160704700000010024049
:1002C0000020024000000140FEE74FF4E96188424F
:1002D00000D3084642F2283148434FF0E0214861FC
:1002E00000208861012008610869C003FCD5086905
:1002F00020F00100086170472DE9F04F9646374A1B
:10030000DDF824B00509966900F00F0AAF1C01243E
:10031000BC40264396610207960E4FF00F0C0CFA74
:1003200006F8A6F1200703FA06F90CFA07FCBB4011
:100330002B4A040952F8244011B1012918D03CE09D
:10034000BAF1080F0AD2216821EA0801216052F8A7
:1003500025100B6843EA09030B602EE0616821EA6F
:100360000C01616052F825104C6823434B6024E077
:10037000BAF1080F11D2216821EA0801216052F870
:1003800025100B6843EA09030B6052F825100C682E
:100390000BFA06F31C430C600FE0616821EA0C01C4
:1003A000616052F825104C6823434B6052F82530A9
:1003B0000BFA07F15C682143596052F8251000F0F0
:1003C0000F0301209840CA68BEF1000F01D002431C
:1003D00000E08243CA60BDE8F08F000000100240D8
:1003E000000000200549020951F82210CA6800F0F7
:1003F0000F03012098404240CA607047000000206F
:1004000008B50320002300901A4601212D20FFF794
:1004100073FF2D20FFF7E6FF6420FFF756FFF8E794
:10042000400400080000002010000000280100081F
:10043000500400081000002060060000440100087D
:1004400000080140000C0140001001400014014070
:04000005080000ED02
:00000001FF
